{
  "_format": "hh-sol-artifact-1",
  "contractName": "Crimewatch",
  "sourceName": "contracts/Crimewatch.sol",
  "abi": [
    {
      "anonymous": false,
      "inputs": [
        {
          "indexed": true,
          "internalType": "string",
          "name": "caseId",
          "type": "string"
        },
        {
          "indexed": false,
          "internalType": "string",
          "name": "userId",
          "type": "string"
        },
        {
          "indexed": false,
          "internalType": "string",
          "name": "agencyId",
          "type": "string"
        }
      ],
      "name": "CaseEvent",
      "type": "event"
    },
    {
      "anonymous": false,
      "inputs": [
        {
          "indexed": true,
          "internalType": "string",
          "name": "caseId",
          "type": "string"
        },
        {
          "indexed": false,
          "internalType": "string",
          "name": "agencyId",
          "type": "string"
        },
        {
          "indexed": true,
          "internalType": "string",
          "name": "publishedUrl",
          "type": "string"
        }
      ],
      "name": "CompletedCaseEvent",
      "type": "event"
    },
    {
      "anonymous": false,
      "inputs": [
        {
          "indexed": true,
          "internalType": "string",
          "name": "cardId",
          "type": "string"
        },
        {
          "indexed": false,
          "internalType": "string",
          "name": "userId",
          "type": "string"
        },
        {
          "indexed": false,
          "internalType": "string",
          "name": "agencyId",
          "type": "string"
        }
      ],
      "name": "DigitalCardEvent",
      "type": "event"
    },
    {
      "anonymous": false,
      "inputs": [
        {
          "indexed": true,
          "internalType": "string",
          "name": "caseId",
          "type": "string"
        },
        {
          "indexed": false,
          "internalType": "string",
          "name": "handlerId",
          "type": "string"
        },
        {
          "indexed": false,
          "internalType": "uint256",
          "name": "timestamp",
          "type": "uint256"
        }
      ],
      "name": "EvidenceEvent",
      "type": "event"
    },
    {
      "anonymous": false,
      "inputs": [
        {
          "indexed": true,
          "internalType": "string",
          "name": "caseId",
          "type": "string"
        },
        {
          "indexed": false,
          "internalType": "string",
          "name": "handlerId",
          "type": "string"
        },
        {
          "indexed": false,
          "internalType": "uint256",
          "name": "timestamp",
          "type": "uint256"
        }
      ],
      "name": "ParticipantEvent",
      "type": "event"
    },
    {
      "anonymous": false,
      "inputs": [
        {
          "indexed": true,
          "internalType": "string",
          "name": "caseId",
          "type": "string"
        },
        {
          "indexed": false,
          "internalType": "string",
          "name": "requestedById",
          "type": "string"
        }
      ],
      "name": "RequestCaseEvent",
      "type": "event"
    },
    {
      "anonymous": false,
      "inputs": [
        {
          "indexed": true,
          "internalType": "string",
          "name": "caseId",
          "type": "string"
        },
        {
          "indexed": false,
          "internalType": "string",
          "name": "requestedById",
          "type": "string"
        }
      ],
      "name": "RequestCaseUpdateEvent",
      "type": "event"
    },
    {
      "inputs": [
        {
          "internalType": "string",
          "name": "caseId",
          "type": "string"
        },
        {
          "internalType": "string",
          "name": "publishedUrl",
          "type": "string"
        },
        {
          "internalType": "string",
          "name": "agencyId",
          "type": "string"
        }
      ],
      "name": "addCompletedCase",
      "outputs": [],
      "stateMutability": "nonpayable",
      "type": "function"
    },
    {
      "inputs": [
        {
          "internalType": "string",
          "name": "caseId",
          "type": "string"
        },
        {
          "internalType": "string",
          "name": "accountId",
          "type": "string"
        }
      ],
      "name": "addEvidence",
      "outputs": [],
      "stateMutability": "nonpayable",
      "type": "function"
    },
    {
      "inputs": [
        {
          "internalType": "string",
          "name": "caseId",
          "type": "string"
        },
        {
          "internalType": "string",
          "name": "accountId",
          "type": "string"
        }
      ],
      "name": "addParticipant",
      "outputs": [],
      "stateMutability": "nonpayable",
      "type": "function"
    },
    {
      "inputs": [
        {
          "internalType": "string",
          "name": "cardId",
          "type": "string"
        },
        {
          "internalType": "string",
          "name": "agencyId",
          "type": "string"
        },
        {
          "internalType": "string",
          "name": "userId",
          "type": "string"
        }
      ],
      "name": "applyDigitalCard",
      "outputs": [],
      "stateMutability": "nonpayable",
      "type": "function"
    },
    {
      "inputs": [
        {
          "internalType": "uint256",
          "name": "",
          "type": "uint256"
        }
      ],
      "name": "caseIds",
      "outputs": [
        {
          "internalType": "string",
          "name": "",
          "type": "string"
        }
      ],
      "stateMutability": "view",
      "type": "function"
    },
    {
      "inputs": [
        {
          "internalType": "string",
          "name": "",
          "type": "string"
        }
      ],
      "name": "caseMapping",
      "outputs": [
        {
          "internalType": "string",
          "name": "userId",
          "type": "string"
        },
        {
          "internalType": "string",
          "name": "agencyId",
          "type": "string"
        }
      ],
      "stateMutability": "view",
      "type": "function"
    },
    {
      "inputs": [
        {
          "internalType": "uint256",
          "name": "",
          "type": "uint256"
        }
      ],
      "name": "completedCaseIds",
      "outputs": [
        {
          "internalType": "string",
          "name": "",
          "type": "string"
        }
      ],
      "stateMutability": "view",
      "type": "function"
    },
    {
      "inputs": [
        {
          "internalType": "string",
          "name": "",
          "type": "string"
        }
      ],
      "name": "completedCaseMapping",
      "outputs": [
        {
          "internalType": "string",
          "name": "publishedUrl",
          "type": "string"
        }
      ],
      "stateMutability": "view",
      "type": "function"
    },
    {
      "inputs": [
        {
          "internalType": "string",
          "name": "caseId",
          "type": "string"
        },
        {
          "internalType": "string",
          "name": "userId",
          "type": "string"
        },
        {
          "internalType": "string",
          "name": "agencyId",
          "type": "string"
        }
      ],
      "name": "createCase",
      "outputs": [],
      "stateMutability": "nonpayable",
      "type": "function"
    },
    {
      "inputs": [
        {
          "internalType": "uint256",
          "name": "",
          "type": "uint256"
        }
      ],
      "name": "digitalCardIds",
      "outputs": [
        {
          "internalType": "string",
          "name": "",
          "type": "string"
        }
      ],
      "stateMutability": "view",
      "type": "function"
    },
    {
      "inputs": [
        {
          "internalType": "string",
          "name": "",
          "type": "string"
        }
      ],
      "name": "digitalCardMapping",
      "outputs": [
        {
          "internalType": "string",
          "name": "userId",
          "type": "string"
        },
        {
          "internalType": "string",
          "name": "agencyId",
          "type": "string"
        },
        {
          "internalType": "enum Crimewatch.RequestStatus",
          "name": "status",
          "type": "uint8"
        }
      ],
      "stateMutability": "view",
      "type": "function"
    },
    {
      "inputs": [
        {
          "internalType": "string",
          "name": "caseId",
          "type": "string"
        }
      ],
      "name": "getCase",
      "outputs": [
        {
          "components": [
            {
              "internalType": "string",
              "name": "userId",
              "type": "string"
            },
            {
              "internalType": "string",
              "name": "agencyId",
              "type": "string"
            },
            {
              "components": [
                {
                  "internalType": "string",
                  "name": "handlerId",
                  "type": "string"
                },
                {
                  "internalType": "uint256",
                  "name": "timestamp",
                  "type": "uint256"
                }
              ],
              "internalType": "struct Crimewatch.Evidence[]",
              "name": "evidences",
              "type": "tuple[]"
            },
            {
              "components": [
                {
                  "internalType": "string",
                  "name": "handlerId",
                  "type": "string"
                },
                {
                  "internalType": "uint256",
                  "name": "timestamp",
                  "type": "uint256"
                }
              ],
              "internalType": "struct Crimewatch.CaseParticipant[]",
              "name": "caseParticipants",
              "type": "tuple[]"
            }
          ],
          "internalType": "struct Crimewatch.Case",
          "name": "",
          "type": "tuple"
        }
      ],
      "stateMutability": "view",
      "type": "function"
    },
    {
      "inputs": [
        {
          "internalType": "string",
          "name": "cardId",
          "type": "string"
        }
      ],
      "name": "getDigitalCard",
      "outputs": [
        {
          "components": [
            {
              "internalType": "string",
              "name": "userId",
              "type": "string"
            },
            {
              "internalType": "string",
              "name": "agencyId",
              "type": "string"
            },
            {
              "internalType": "enum Crimewatch.RequestStatus",
              "name": "status",
              "type": "uint8"
            }
          ],
          "internalType": "struct Crimewatch.DigitalCard",
          "name": "",
          "type": "tuple"
        }
      ],
      "stateMutability": "view",
      "type": "function"
    },
    {
      "inputs": [
        {
          "internalType": "string",
          "name": "agencyId",
          "type": "string"
        }
      ],
      "name": "getDigitalCards",
      "outputs": [
        {
          "components": [
            {
              "internalType": "string",
              "name": "userId",
              "type": "string"
            },
            {
              "internalType": "string",
              "name": "agencyId",
              "type": "string"
            },
            {
              "internalType": "enum Crimewatch.RequestStatus",
              "name": "status",
              "type": "uint8"
            }
          ],
          "internalType": "struct Crimewatch.DigitalCard[]",
          "name": "",
          "type": "tuple[]"
        }
      ],
      "stateMutability": "view",
      "type": "function"
    },
    {
      "inputs": [
        {
          "internalType": "string",
          "name": "accountId",
          "type": "string"
        }
      ],
      "name": "getRequestedCases",
      "outputs": [
        {
          "components": [
            {
              "internalType": "string",
              "name": "requestedById",
              "type": "string"
            },
            {
              "internalType": "string",
              "name": "requestedToId",
              "type": "string"
            },
            {
              "internalType": "string",
              "name": "caseId",
              "type": "string"
            },
            {
              "internalType": "enum Crimewatch.RequestStatus",
              "name": "status",
              "type": "uint8"
            },
            {
              "internalType": "string",
              "name": "publishedUrl",
              "type": "string"
            }
          ],
          "internalType": "struct Crimewatch.RequestCase[]",
          "name": "",
          "type": "tuple[]"
        }
      ],
      "stateMutability": "view",
      "type": "function"
    },
    {
      "inputs": [
        {
          "internalType": "string",
          "name": "caseId",
          "type": "string"
        },
        {
          "internalType": "string",
          "name": "agencyId",
          "type": "string"
        }
      ],
      "name": "requestCase",
      "outputs": [],
      "stateMutability": "nonpayable",
      "type": "function"
    },
    {
      "inputs": [
        {
          "internalType": "uint256",
          "name": "",
          "type": "uint256"
        }
      ],
      "name": "requestCaseIds",
      "outputs": [
        {
          "internalType": "string",
          "name": "",
          "type": "string"
        }
      ],
      "stateMutability": "view",
      "type": "function"
    },
    {
      "inputs": [
        {
          "internalType": "string",
          "name": "",
          "type": "string"
        },
        {
          "internalType": "uint256",
          "name": "",
          "type": "uint256"
        }
      ],
      "name": "requestCaseMapping",
      "outputs": [
        {
          "internalType": "string",
          "name": "requestedById",
          "type": "string"
        },
        {
          "internalType": "string",
          "name": "requestedToId",
          "type": "string"
        },
        {
          "internalType": "string",
          "name": "caseId",
          "type": "string"
        },
        {
          "internalType": "enum Crimewatch.RequestStatus",
          "name": "status",
          "type": "uint8"
        },
        {
          "internalType": "string",
          "name": "publishedUrl",
          "type": "string"
        }
      ],
      "stateMutability": "view",
      "type": "function"
    },
    {
      "inputs": [
        {
          "internalType": "string",
          "name": "cardId",
          "type": "string"
        },
        {
          "internalType": "string",
          "name": "agencyId",
          "type": "string"
        },
        {
          "internalType": "enum Crimewatch.RequestStatus",
          "name": "status",
          "type": "uint8"
        }
      ],
      "name": "updateDigitalCard",
      "outputs": [],
      "stateMutability": "nonpayable",
      "type": "function"
    },
    {
      "inputs": [
        {
          "internalType": "string",
          "name": "caseId",
          "type": "string"
        },
        {
          "internalType": "string",
          "name": "requestedById",
          "type": "string"
        },
        {
          "internalType": "enum Crimewatch.RequestStatus",
          "name": "status",
          "type": "uint8"
        },
        {
          "internalType": "string",
          "name": "requestedToId",
          "type": "string"
        }
      ],
      "name": "updateRequestedCase",
      "outputs": [],
      "stateMutability": "nonpayable",
      "type": "function"
    }
  ],
  "bytecode": "0x608060405234801561001057600080fd5b50615283806100206000396000f3fe608060405234801561001057600080fd5b506004361061012c5760003560e01c806394ed0c18116100ad578063d4e0682611610071578063d4e0682614610390578063eb5c0bea146103c0578063f33c9a44146103dc578063f35400581461040c578063f9540504146104285761012c565b806394ed0c18146102d9578063991563331461030b5780639ab77921146103275780639d5061f914610358578063cd62edcc146103745761012c565b8063683ffc03116100f4578063683ffc03146101f95780636bbc463c146102155780638259fc23146102455780638ad8ae97146102755780638ed36ff7146102a95761012c565b806314cf72c8146101315780632a2908541461014d578063439ed6481461017d5780634ec523d2146101ad57806361f0978f146101c9575b600080fd5b61014b60048036038101906101469190613b9b565b610458565b005b61016760048036038101906101629190613c56565b6107a3565b6040516101749190613eae565b60405180910390f35b61019760048036038101906101929190613c56565b610bdb565b6040516101a49190613f27565b60405180910390f35b6101c760048036038101906101c29190613f49565b610d72565b005b6101e360048036038101906101de9190614026565b611033565b6040516101f0919061409d565b60405180910390f35b610213600480360381019061020e9190613f49565b6110df565b005b61022f600480360381019061022a9190614026565b6113bf565b60405161023c919061409d565b60405180910390f35b61025f600480360381019061025a9190613c56565b61146b565b60405161026c919061409d565b60405180910390f35b61028f600480360381019061028a91906140bf565b611527565b6040516102a095949392919061412a565b60405180910390f35b6102c360048036038101906102be9190614026565b6117bd565b6040516102d0919061409d565b60405180910390f35b6102f360048036038101906102ee9190613c56565b611869565b60405161030293929190614199565b60405180910390f35b610325600480360381019061032091906141de565b6119c6565b005b610341600480360381019061033c9190613c56565b611efd565b60405161034f929190614256565b60405180910390f35b610372600480360381019061036d9190613f49565b612047565b005b61038e6004803603810190610389919061428d565b61219e565b005b6103aa60048036038101906103a59190613c56565b6122c7565b6040516103b7919061459d565b60405180910390f35b6103da60048036038101906103d591906141de565b61268b565b005b6103f660048036038101906103f19190613c56565b612a2e565b604051610403919061470c565b60405180910390f35b610426600480360381019061042191906141de565b61331f565b005b610442600480360381019061043d9190614026565b6136c2565b60405161044f919061409d565b60405180910390f35b838161050d60048360405161046d919061476a565b90815260200160405180910390206001018054610489906147b0565b80601f01602080910402602001604051908101604052809291908181526020018280546104b5906147b0565b80156105025780601f106104d757610100808354040283529160200191610502565b820191906000526020600020905b8154815290600101906020018083116104e557829003601f168201915b50505050508261376e565b61054c576040517f08c379a00000000000000000000000000000000000000000000000000000000081526004016105439061482d565b60405180910390fd5b600060078760405161055e919061476a565b908152602001604051809103902080549050905060005b8181101561079957610650600789604051610590919061476a565b908152602001604051809103902082815481106105b0576105af61484d565b5b906000526020600020906005020160000180546105cc906147b0565b80601f01602080910402602001604051908101604052809291908181526020018280546105f8906147b0565b80156106455780601f1061061a57610100808354040283529160200191610645565b820191906000526020600020905b81548152906001019060200180831161062857829003601f168201915b50505050508861376e565b15610786576000600789604051610667919061476a565b908152602001604051809103902082815481106106875761068661484d565b5b90600052602060002090600502019050868160030160006101000a81548160ff021916908360028111156106be576106bd613d4a565b5b0217905550600060028111156106d7576106d6613d4a565b5b8160030160009054906101000a900460ff1660028111156106fb576106fa613d4a565b5b0361073357600689604051610710919061476a565b90815260200160405180910390206000018160040190816107319190614a53565b505b88604051610741919061476a565b60405180910390207fd4d13122af12c193992ca3cfd4115fdf4489f360e7fbe55716ddcd2e8f0af11287604051610778919061409d565b60405180910390a250610799565b808061079190614b6a565b915050610575565b5050505050505050565b60606000805b6003805490508110156108ad576108866005600383815481106107cf576107ce61484d565b5b906000526020600020016040516107e69190614c35565b90815260200160405180910390206001018054610802906147b0565b80601f016020809104026020016040519081016040528092919081815260200182805461082e906147b0565b801561087b5780601f106108505761010080835404028352916020019161087b565b820191906000526020600020905b81548152906001019060200180831161085e57829003601f168201915b50505050508561376e565b1561089a57818061089690614b6a565b9250505b80806108a590614b6a565b9150506107a9565b506000808267ffffffffffffffff8111156108cb576108ca613a4b565b5b60405190808252806020026020018201604052801561090457816020015b6108f16137d7565b8152602001906001900390816108e95790505b50905060005b600380549050811015610bcf576109e76005600383815481106109305761092f61484d565b5b906000526020600020016040516109479190614c35565b90815260200160405180910390206001018054610963906147b0565b80601f016020809104026020016040519081016040528092919081815260200182805461098f906147b0565b80156109dc5780601f106109b1576101008083540402835291602001916109dc565b820191906000526020600020905b8154815290600101906020018083116109bf57829003601f168201915b50505050508761376e565b15610bbc57600560038281548110610a0257610a0161484d565b5b90600052602060002001604051610a199190614c35565b9081526020016040518091039020604051806060016040529081600082018054610a42906147b0565b80601f0160208091040260200160405190810160405280929190818152602001828054610a6e906147b0565b8015610abb5780601f10610a9057610100808354040283529160200191610abb565b820191906000526020600020905b815481529060010190602001808311610a9e57829003601f168201915b50505050508152602001600182018054610ad4906147b0565b80601f0160208091040260200160405190810160405280929190818152602001828054610b00906147b0565b8015610b4d5780601f10610b2257610100808354040283529160200191610b4d565b820191906000526020600020905b815481529060010190602001808311610b3057829003601f168201915b505050505081526020016002820160009054906101000a900460ff166002811115610b7b57610b7a613d4a565b5b6002811115610b8d57610b8c613d4a565b5b81525050828480610b9d90614b6a565b955081518110610bb057610baf61484d565b5b60200260200101819052505b8080610bc790614b6a565b91505061090a565b50809350505050919050565b610be36137d7565b600582604051610bf3919061476a565b9081526020016040518091039020604051806060016040529081600082018054610c1c906147b0565b80601f0160208091040260200160405190810160405280929190818152602001828054610c48906147b0565b8015610c955780601f10610c6a57610100808354040283529160200191610c95565b820191906000526020600020905b815481529060010190602001808311610c7857829003601f168201915b50505050508152602001600182018054610cae906147b0565b80601f0160208091040260200160405190810160405280929190818152602001828054610cda906147b0565b8015610d275780601f10610cfc57610100808354040283529160200191610d27565b820191906000526020600020905b815481529060010190602001808311610d0a57829003601f168201915b505050505081526020016002820160009054906101000a900460ff166002811115610d5557610d54613d4a565b5b6002811115610d6757610d66613d4a565b5b815250509050919050565b826000600482604051610d85919061476a565b90815260200160405180910390206000018054610da1906147b0565b905011610de3576040517f08c379a0000000000000000000000000000000000000000000000000000000008152600401610dda90614c98565b60405180910390fd5b8382610e98600483604051610df8919061476a565b90815260200160405180910390206001018054610e14906147b0565b80601f0160208091040260200160405190810160405280929190818152602001828054610e40906147b0565b8015610e8d5780601f10610e6257610100808354040283529160200191610e8d565b820191906000526020600020905b815481529060010190602001808311610e7057829003601f168201915b50505050508261376e565b610ed7576040517f08c379a0000000000000000000000000000000000000000000000000000000008152600401610ece9061482d565b60405180910390fd5b6000600687604051610ee9919061476a565b90815260200160405180910390206000018054610f05906147b0565b905014610f47576040517f08c379a0000000000000000000000000000000000000000000000000000000008152600401610f3e90614d04565b60405180910390fd5b6000604051806020016040528087815250905080600688604051610f6b919061476a565b90815260200160405180910390206000820151816000019081610f8e9190614d24565b50905050600187908060018154018082558091505060019003906000526020600020016000909190919091509081610fc69190614d24565b5085604051610fd5919061476a565b604051809103902087604051610feb919061476a565b60405180910390207f2356f98ce86fbdc4bec46fea50e71c064c1f8977d01145f26dd046464eeaa10c87604051611022919061409d565b60405180910390a350505050505050565b6001818154811061104357600080fd5b90600052602060002001600091509050805461105e906147b0565b80601f016020809104026020016040519081016040528092919081815260200182805461108a906147b0565b80156110d75780601f106110ac576101008083540402835291602001916110d7565b820191906000526020600020905b8154815290600101906020018083116110ba57829003601f168201915b505050505081565b8060005b600380549050811015611213576111c06005600383815481106111095761110861484d565b5b906000526020600020016040516111209190614c35565b9081526020016040518091039020600001805461113c906147b0565b80601f0160208091040260200160405190810160405280929190818152602001828054611168906147b0565b80156111b55780601f1061118a576101008083540402835291602001916111b5565b820191906000526020600020905b81548152906001019060200180831161119857829003601f168201915b50505050508361376e565b15611200576040517f08c379a00000000000000000000000000000000000000000000000000000000081526004016111f790614e42565b60405180910390fd5b808061120b90614b6a565b9150506110e3565b506000600585604051611226919061476a565b90815260200160405180910390206000018054611242906147b0565b905014611284576040517f08c379a000000000000000000000000000000000000000000000000000000000815260040161127b90614eae565b60405180910390fd5b60006040518060600160405280848152602001858152602001600160028111156112b1576112b0613d4a565b5b8152509050806005866040516112c7919061476a565b908152602001604051809103902060008201518160000190816112ea9190614d24565b5060208201518160010190816113009190614d24565b5060408201518160020160006101000a81548160ff0219169083600281111561132c5761132b613d4a565b5b02179055509050506003859080600181540180825580915050600190039060005260206000200160009091909190915090816113689190614d24565b5084604051611377919061476a565b60405180910390207fd25afa0a554100161a217d989a131598431c4553a9ba16a2f4c4c6ef78b107b184866040516113b0929190614256565b60405180910390a25050505050565b600281815481106113cf57600080fd5b9060005260206000200160009150905080546113ea906147b0565b80601f0160208091040260200160405190810160405280929190818152602001828054611416906147b0565b80156114635780601f1061143857610100808354040283529160200191611463565b820191906000526020600020905b81548152906001019060200180831161144657829003601f168201915b505050505081565b6006818051602081018201805184825260208301602085012081835280955050505050506000915090508060000180546114a4906147b0565b80601f01602080910402602001604051908101604052809291908181526020018280546114d0906147b0565b801561151d5780601f106114f25761010080835404028352916020019161151d565b820191906000526020600020905b81548152906001019060200180831161150057829003601f168201915b5050505050905081565b600782805160208101820180518482526020830160208501208183528095505050505050818154811061155957600080fd5b90600052602060002090600502016000915091505080600001805461157d906147b0565b80601f01602080910402602001604051908101604052809291908181526020018280546115a9906147b0565b80156115f65780601f106115cb576101008083540402835291602001916115f6565b820191906000526020600020905b8154815290600101906020018083116115d957829003601f168201915b50505050509080600101805461160b906147b0565b80601f0160208091040260200160405190810160405280929190818152602001828054611637906147b0565b80156116845780601f1061165957610100808354040283529160200191611684565b820191906000526020600020905b81548152906001019060200180831161166757829003601f168201915b505050505090806002018054611699906147b0565b80601f01602080910402602001604051908101604052809291908181526020018280546116c5906147b0565b80156117125780601f106116e757610100808354040283529160200191611712565b820191906000526020600020905b8154815290600101906020018083116116f557829003601f168201915b5050505050908060030160009054906101000a900460ff169080600401805461173a906147b0565b80601f0160208091040260200160405190810160405280929190818152602001828054611766906147b0565b80156117b35780601f10611788576101008083540402835291602001916117b3565b820191906000526020600020905b81548152906001019060200180831161179657829003601f168201915b5050505050905085565b600381815481106117cd57600080fd5b9060005260206000200160009150905080546117e8906147b0565b80601f0160208091040260200160405190810160405280929190818152602001828054611814906147b0565b80156118615780601f1061183657610100808354040283529160200191611861565b820191906000526020600020905b81548152906001019060200180831161184457829003601f168201915b505050505081565b6005818051602081018201805184825260208301602085012081835280955050505050506000915090508060000180546118a2906147b0565b80601f01602080910402602001604051908101604052809291908181526020018280546118ce906147b0565b801561191b5780601f106118f05761010080835404028352916020019161191b565b820191906000526020600020905b8154815290600101906020018083116118fe57829003601f168201915b505050505090806001018054611930906147b0565b80601f016020809104026020016040519081016040528092919081815260200182805461195c906147b0565b80156119a95780601f1061197e576101008083540402835291602001916119a9565b820191906000526020600020905b81548152906001019060200180831161198c57829003601f168201915b5050505050908060020160009054906101000a900460ff16905083565b8160006004826040516119d9919061476a565b908152602001604051809103902060000180546119f5906147b0565b905011611a37576040517f08c379a0000000000000000000000000000000000000000000000000000000008152600401611a2e90614c98565b60405180910390fd5b826000600682604051611a4a919061476a565b90815260200160405180910390206000018054611a66906147b0565b905011611aa8576040517f08c379a0000000000000000000000000000000000000000000000000000000008152600401611a9f90614f1a565b60405180910390fd5b6000600485604051611aba919061476a565b90815260200160405180910390206001018054611ad6906147b0565b80601f0160208091040260200160405190810160405280929190818152602001828054611b02906147b0565b8015611b4f5780601f10611b2457610100808354040283529160200191611b4f565b820191906000526020600020905b815481529060010190602001808311611b3257829003601f168201915b5050505050905060006040518060a0016040528086815260200183815260200187815260200160016002811115611b8957611b88613d4a565b5b8152602001604051806020016040528060008152508152509050600080600788604051611bb6919061476a565b9081526020016040518091039020905060005b8180549050811015611cac57611c8b828281548110611beb57611bea61484d565b5b90600052602060002090600502016000018054611c07906147b0565b80601f0160208091040260200160405190810160405280929190818152602001828054611c33906147b0565b8015611c805780601f10611c5557610100808354040283529160200191611c80565b820191906000526020600020905b815481529060010190602001808311611c6357829003601f168201915b50505050508961376e565b15611c995760019250611cac565b8080611ca490614b6a565b915050611bc9565b5081611d8557600788604051611cc2919061476a565b90815260200160405180910390208390806001815401808255809150506001900390600052602060002090600502016000909190919091506000820151816000019081611d0f9190614d24565b506020820151816001019081611d259190614d24565b506040820151816002019081611d3b9190614d24565b5060608201518160030160006101000a81548160ff02191690836002811115611d6757611d66613d4a565b5b02179055506080820151816004019081611d819190614d24565b5050505b6000915060005b600080549050811015611e6a57611e4960008281548110611db057611daf61484d565b5b906000526020600020018054611dc5906147b0565b80601f0160208091040260200160405190810160405280929190818152602001828054611df1906147b0565b8015611e3e5780601f10611e1357610100808354040283529160200191611e3e565b820191906000526020600020905b815481529060010190602001808311611e2157829003601f168201915b50505050508a61376e565b15611e575760019250611e6a565b8080611e6290614b6a565b915050611d8c565b5081611ea657600088908060018154018082558091505060019003906000526020600020016000909190919091509081611ea49190614d24565b505b87604051611eb4919061476a565b60405180910390207fd4d13122af12c193992ca3cfd4115fdf4489f360e7fbe55716ddcd2e8f0af11288604051611eeb919061409d565b60405180910390a25050505050505050565b600481805160208101820180518482526020830160208501208183528095505050505050600091509050806000018054611f36906147b0565b80601f0160208091040260200160405190810160405280929190818152602001828054611f62906147b0565b8015611faf5780601f10611f8457610100808354040283529160200191611faf565b820191906000526020600020905b815481529060010190602001808311611f9257829003601f168201915b505050505090806001018054611fc4906147b0565b80601f0160208091040260200160405190810160405280929190818152602001828054611ff0906147b0565b801561203d5780601f106120125761010080835404028352916020019161203d565b820191906000526020600020905b81548152906001019060200180831161202057829003601f168201915b5050505050905082565b6000600484604051612059919061476a565b90815260200160405180910390206000018054612075906147b0565b9050146120b7576040517f08c379a00000000000000000000000000000000000000000000000000000000081526004016120ae90614f86565b60405180910390fd5b816004846040516120c8919061476a565b908152602001604051809103902060000190816120e59190614d24565b50806004846040516120f7919061476a565b908152602001604051809103902060010190816121149190614d24565b506002839080600181540180825580915050600190039060005260206000200160009091909190915090816121499190614d24565b5082604051612158919061476a565b60405180910390207fe546654ab105125b47005a24d6b52d1401c295a1ad5f09b31566a5b3110d152b8383604051612191929190614256565b60405180910390a2505050565b60006005846040516121b0919061476a565b908152602001604051809103902090506122568160010180546121d2906147b0565b80601f01602080910402602001604051908101604052809291908181526020018280546121fe906147b0565b801561224b5780601f106122205761010080835404028352916020019161224b565b820191906000526020600020905b81548152906001019060200180831161222e57829003601f168201915b50505050508461376e565b612295576040517f08c379a000000000000000000000000000000000000000000000000000000000815260040161228c90614ff2565b60405180910390fd5b818160020160006101000a81548160ff021916908360028111156122bc576122bb613d4a565b5b021790555050505050565b6122cf61380a565b8160006004826040516122e2919061476a565b908152602001604051809103902060000180546122fe906147b0565b905011612340576040517f08c379a000000000000000000000000000000000000000000000000000000000815260040161233790614c98565b60405180910390fd5b600483604051612350919061476a565b9081526020016040518091039020604051806080016040529081600082018054612379906147b0565b80601f01602080910402602001604051908101604052809291908181526020018280546123a5906147b0565b80156123f25780601f106123c7576101008083540402835291602001916123f2565b820191906000526020600020905b8154815290600101906020018083116123d557829003601f168201915b5050505050815260200160018201805461240b906147b0565b80601f0160208091040260200160405190810160405280929190818152602001828054612437906147b0565b80156124845780601f1061245957610100808354040283529160200191612484565b820191906000526020600020905b81548152906001019060200180831161246757829003601f168201915b5050505050815260200160028201805480602002602001604051908101604052809291908181526020016000905b8282101561258057838290600052602060002090600202016040518060400160405290816000820180546124e5906147b0565b80601f0160208091040260200160405190810160405280929190818152602001828054612511906147b0565b801561255e5780601f106125335761010080835404028352916020019161255e565b820191906000526020600020905b81548152906001019060200180831161254157829003601f168201915b50505050508152602001600182015481525050815260200190600101906124b2565b50505050815260200160038201805480602002602001604051908101604052809291908181526020016000905b8282101561267b57838290600052602060002090600202016040518060400160405290816000820180546125e0906147b0565b80601f016020809104026020016040519081016040528092919081815260200182805461260c906147b0565b80156126595780601f1061262e57610100808354040283529160200191612659565b820191906000526020600020905b81548152906001019060200180831161263c57829003601f168201915b50505050508152602001600182015481525050815260200190600101906125ad565b5050505081525050915050919050565b81600060048260405161269e919061476a565b908152602001604051809103902060000180546126ba906147b0565b9050116126fc576040517f08c379a00000000000000000000000000000000000000000000000000000000081526004016126f390614c98565b60405180910390fd5b6127af60048460405161270f919061476a565b9081526020016040518091039020600101805461272b906147b0565b80601f0160208091040260200160405190810160405280929190818152602001828054612757906147b0565b80156127a45780601f10612779576101008083540402835291602001916127a4565b820191906000526020600020905b81548152906001019060200180831161278757829003601f168201915b50505050508361376e565b8061286957506128686004846040516127c8919061476a565b908152602001604051809103902060000180546127e4906147b0565b80601f0160208091040260200160405190810160405280929190818152602001828054612810906147b0565b801561285d5780601f106128325761010080835404028352916020019161285d565b820191906000526020600020905b81548152906001019060200180831161284057829003601f168201915b50505050508361376e565b5b6128a8576040517f08c379a000000000000000000000000000000000000000000000000000000000815260040161289f90615084565b60405180910390fd5b60006006846040516128ba919061476a565b908152602001604051809103902060000180546128d6906147b0565b905014612918576040517f08c379a000000000000000000000000000000000000000000000000000000000815260040161290f906150f0565b60405180910390fd5b600060405180604001604052808481526020014281525090506000600485604051612943919061476a565b908152602001604051809103902060020190508082908060018154018082558091505060019003906000526020600020906002020160009091909190915060008201518160000190816129969190614d24565b50602082015181600101555050806004866040516129b4919061476a565b90815260200160405180910390206002019080546129d3929190613832565b50846040516129e2919061476a565b60405180910390207fb7b935325e0be01f3d5c050422dac655816f6cc853f68d564978d8e80b042021858460200151604051612a1f92919061511f565b60405180910390a25050505050565b60606000805b600080549050811015612d00576000808281548110612a5657612a5561484d565b5b906000526020600020018054612a6b906147b0565b80601f0160208091040260200160405190810160405280929190818152602001828054612a97906147b0565b8015612ae45780601f10612ab957610100808354040283529160200191612ae4565b820191906000526020600020905b815481529060010190602001808311612ac757829003601f168201915b5050505050905060005b600782604051612afe919061476a565b908152602001604051809103902080549050811015612ceb57612bea600783604051612b2a919061476a565b90815260200160405180910390208281548110612b4a57612b4961484d565b5b90600052602060002090600502016000018054612b66906147b0565b80601f0160208091040260200160405190810160405280929190818152602001828054612b92906147b0565b8015612bdf5780601f10612bb457610100808354040283529160200191612bdf565b820191906000526020600020905b815481529060010190602001808311612bc257829003601f168201915b50505050508761376e565b80612cc45750612cc3600783604051612c03919061476a565b90815260200160405180910390208281548110612c2357612c2261484d565b5b90600052602060002090600502016001018054612c3f906147b0565b80601f0160208091040260200160405190810160405280929190818152602001828054612c6b906147b0565b8015612cb85780601f10612c8d57610100808354040283529160200191612cb8565b820191906000526020600020905b815481529060010190602001808311612c9b57829003601f168201915b50505050508761376e565b5b15612cd8578380612cd490614b6a565b9450505b8080612ce390614b6a565b915050612aee565b50508080612cf890614b6a565b915050612a34565b5060008167ffffffffffffffff811115612d1d57612d1c613a4b565b5b604051908082528060200260200182016040528015612d5657816020015b612d436138a9565b815260200190600190039081612d3b5790505b5090506000805b600080549050811015613313576000808281548110612d7f57612d7e61484d565b5b906000526020600020018054612d94906147b0565b80601f0160208091040260200160405190810160405280929190818152602001828054612dc0906147b0565b8015612e0d5780601f10612de257610100808354040283529160200191612e0d565b820191906000526020600020905b815481529060010190602001808311612df057829003601f168201915b5050505050905060005b600782604051612e27919061476a565b9081526020016040518091039020805490508110156132fe57612f13600783604051612e53919061476a565b90815260200160405180910390208281548110612e7357612e7261484d565b5b90600052602060002090600502016000018054612e8f906147b0565b80601f0160208091040260200160405190810160405280929190818152602001828054612ebb906147b0565b8015612f085780601f10612edd57610100808354040283529160200191612f08565b820191906000526020600020905b815481529060010190602001808311612eeb57829003601f168201915b50505050508961376e565b80612fed5750612fec600783604051612f2c919061476a565b90815260200160405180910390208281548110612f4c57612f4b61484d565b5b90600052602060002090600502016001018054612f68906147b0565b80601f0160208091040260200160405190810160405280929190818152602001828054612f94906147b0565b8015612fe15780601f10612fb657610100808354040283529160200191612fe1565b820191906000526020600020905b815481529060010190602001808311612fc457829003601f168201915b50505050508961376e565b5b156132eb57600782604051613002919061476a565b908152602001604051809103902081815481106130225761302161484d565b5b90600052602060002090600502016040518060a001604052908160008201805461304b906147b0565b80601f0160208091040260200160405190810160405280929190818152602001828054613077906147b0565b80156130c45780601f10613099576101008083540402835291602001916130c4565b820191906000526020600020905b8154815290600101906020018083116130a757829003601f168201915b505050505081526020016001820180546130dd906147b0565b80601f0160208091040260200160405190810160405280929190818152602001828054613109906147b0565b80156131565780601f1061312b57610100808354040283529160200191613156565b820191906000526020600020905b81548152906001019060200180831161313957829003601f168201915b5050505050815260200160028201805461316f906147b0565b80601f016020809104026020016040519081016040528092919081815260200182805461319b906147b0565b80156131e85780601f106131bd576101008083540402835291602001916131e8565b820191906000526020600020905b8154815290600101906020018083116131cb57829003601f168201915b505050505081526020016003820160009054906101000a900460ff16600281111561321657613215613d4a565b5b600281111561322857613227613d4a565b5b815260200160048201805461323c906147b0565b80601f0160208091040260200160405190810160405280929190818152602001828054613268906147b0565b80156132b55780601f1061328a576101008083540402835291602001916132b5565b820191906000526020600020905b81548152906001019060200180831161329857829003601f168201915b5050505050815250508585815181106132d1576132d061484d565b5b602002602001018190525083806132e790614b6a565b9450505b80806132f690614b6a565b915050612e17565b5050808061330b90614b6a565b915050612d5d565b50819350505050919050565b816000600482604051613332919061476a565b9081526020016040518091039020600001805461334e906147b0565b905011613390576040517f08c379a000000000000000000000000000000000000000000000000000000000815260040161338790614c98565b60405180910390fd5b6134436004846040516133a3919061476a565b908152602001604051809103902060010180546133bf906147b0565b80601f01602080910402602001604051908101604052809291908181526020018280546133eb906147b0565b80156134385780601f1061340d57610100808354040283529160200191613438565b820191906000526020600020905b81548152906001019060200180831161341b57829003601f168201915b50505050508361376e565b806134fd57506134fc60048460405161345c919061476a565b90815260200160405180910390206000018054613478906147b0565b80601f01602080910402602001604051908101604052809291908181526020018280546134a4906147b0565b80156134f15780601f106134c6576101008083540402835291602001916134f1565b820191906000526020600020905b8154815290600101906020018083116134d457829003601f168201915b50505050508361376e565b5b61353c576040517f08c379a000000000000000000000000000000000000000000000000000000000815260040161353390615084565b60405180910390fd5b600060068460405161354e919061476a565b9081526020016040518091039020600001805461356a906147b0565b9050146135ac576040517f08c379a00000000000000000000000000000000000000000000000000000000081526004016135a3906150f0565b60405180910390fd5b6000604051806040016040528084815260200142815250905060006004856040516135d7919061476a565b9081526020016040518091039020600301905080829080600181540180825580915050600190039060005260206000209060020201600090919091909150600082015181600001908161362a9190614d24565b5060208201518160010155505080600486604051613648919061476a565b90815260200160405180910390206003019080546136679291906138ea565b5084604051613676919061476a565b60405180910390207f2045f0afeb3c10b093e9bdaa15f05b4ff083cec3bfac22b3dd5f29115db90dc48584602001516040516136b392919061511f565b60405180910390a25050505050565b600081815481106136d257600080fd5b9060005260206000200160009150905080546136ed906147b0565b80601f0160208091040260200160405190810160405280929190818152602001828054613719906147b0565b80156137665780601f1061373b57610100808354040283529160200191613766565b820191906000526020600020905b81548152906001019060200180831161374957829003601f168201915b505050505081565b600081604051602001613781919061476a565b60405160208183030381529060405280519060200120836040516020016137a8919061476a565b60405160208183030381529060405280519060200120036137cc57600190506137d1565b600090505b92915050565b604051806060016040528060608152602001606081526020016000600281111561380457613803613d4a565b5b81525090565b6040518060800160405280606081526020016060815260200160608152602001606081525090565b8280548282559060005260206000209060020281019282156138985760005260206000209160020282015b828111156138975782826000820181600001908161387b9190615165565b506001820154816001015550509160020191906002019061385d565b5b5090506138a59190613961565b5090565b6040518060a00160405280606081526020016060815260200160608152602001600060028111156138dd576138dc613d4a565b5b8152602001606081525090565b8280548282559060005260206000209060020281019282156139505760005260206000209160020282015b8281111561394f578282600082018160000190816139339190615165565b5060018201548160010155505091600201919060020190613915565b5b50905061395d9190613990565b5090565b5b8082111561398c576000808201600061397b91906139bf565b600182016000905550600201613962565b5090565b5b808211156139bb57600080820160006139aa91906139bf565b600182016000905550600201613991565b5090565b5080546139cb906147b0565b6000825580601f106139dd57506139fc565b601f0160209004906000526020600020908101906139fb91906139ff565b5b50565b5b80821115613a18576000816000905550600101613a00565b5090565b6000604051905090565b600080fd5b600080fd5b600080fd5b600080fd5b6000601f19601f8301169050919050565b7f4e487b7100000000000000000000000000000000000000000000000000000000600052604160045260246000fd5b613a8382613a3a565b810181811067ffffffffffffffff82111715613aa257613aa1613a4b565b5b80604052505050565b6000613ab5613a1c565b9050613ac18282613a7a565b919050565b600067ffffffffffffffff821115613ae157613ae0613a4b565b5b613aea82613a3a565b9050602081019050919050565b82818337600083830152505050565b6000613b19613b1484613ac6565b613aab565b905082815260208101848484011115613b3557613b34613a35565b5b613b40848285613af7565b509392505050565b600082601f830112613b5d57613b5c613a30565b5b8135613b6d848260208601613b06565b91505092915050565b60038110613b8357600080fd5b50565b600081359050613b9581613b76565b92915050565b60008060008060808587031215613bb557613bb4613a26565b5b600085013567ffffffffffffffff811115613bd357613bd2613a2b565b5b613bdf87828801613b48565b945050602085013567ffffffffffffffff811115613c0057613bff613a2b565b5b613c0c87828801613b48565b9350506040613c1d87828801613b86565b925050606085013567ffffffffffffffff811115613c3e57613c3d613a2b565b5b613c4a87828801613b48565b91505092959194509250565b600060208284031215613c6c57613c6b613a26565b5b600082013567ffffffffffffffff811115613c8a57613c89613a2b565b5b613c9684828501613b48565b91505092915050565b600081519050919050565b600082825260208201905092915050565b6000819050602082019050919050565b600081519050919050565b600082825260208201905092915050565b60005b83811015613d05578082015181840152602081019050613cea565b60008484015250505050565b6000613d1c82613ccb565b613d268185613cd6565b9350613d36818560208601613ce7565b613d3f81613a3a565b840191505092915050565b7f4e487b7100000000000000000000000000000000000000000000000000000000600052602160045260246000fd5b60038110613d8a57613d89613d4a565b5b50565b6000819050613d9b82613d79565b919050565b6000613dab82613d8d565b9050919050565b613dbb81613da0565b82525050565b60006060830160008301518482036000860152613dde8282613d11565b91505060208301518482036020860152613df88282613d11565b9150506040830151613e0d6040860182613db2565b508091505092915050565b6000613e248383613dc1565b905092915050565b6000602082019050919050565b6000613e4482613c9f565b613e4e8185613caa565b935083602082028501613e6085613cbb565b8060005b85811015613e9c5784840389528151613e7d8582613e18565b9450613e8883613e2c565b925060208a01995050600181019050613e64565b50829750879550505050505092915050565b60006020820190508181036000830152613ec88184613e39565b905092915050565b60006060830160008301518482036000860152613eed8282613d11565b91505060208301518482036020860152613f078282613d11565b9150506040830151613f1c6040860182613db2565b508091505092915050565b60006020820190508181036000830152613f418184613ed0565b905092915050565b600080600060608486031215613f6257613f61613a26565b5b600084013567ffffffffffffffff811115613f8057613f7f613a2b565b5b613f8c86828701613b48565b935050602084013567ffffffffffffffff811115613fad57613fac613a2b565b5b613fb986828701613b48565b925050604084013567ffffffffffffffff811115613fda57613fd9613a2b565b5b613fe686828701613b48565b9150509250925092565b6000819050919050565b61400381613ff0565b811461400e57600080fd5b50565b60008135905061402081613ffa565b92915050565b60006020828403121561403c5761403b613a26565b5b600061404a84828501614011565b91505092915050565b600082825260208201905092915050565b600061406f82613ccb565b6140798185614053565b9350614089818560208601613ce7565b61409281613a3a565b840191505092915050565b600060208201905081810360008301526140b78184614064565b905092915050565b600080604083850312156140d6576140d5613a26565b5b600083013567ffffffffffffffff8111156140f4576140f3613a2b565b5b61410085828601613b48565b925050602061411185828601614011565b9150509250929050565b61412481613da0565b82525050565b600060a08201905081810360008301526141448188614064565b905081810360208301526141588187614064565b9050818103604083015261416c8186614064565b905061417b606083018561411b565b818103608083015261418d8184614064565b90509695505050505050565b600060608201905081810360008301526141b38186614064565b905081810360208301526141c78185614064565b90506141d6604083018461411b565b949350505050565b600080604083850312156141f5576141f4613a26565b5b600083013567ffffffffffffffff81111561421357614212613a2b565b5b61421f85828601613b48565b925050602083013567ffffffffffffffff8111156142405761423f613a2b565b5b61424c85828601613b48565b9150509250929050565b600060408201905081810360008301526142708185614064565b905081810360208301526142848184614064565b90509392505050565b6000806000606084860312156142a6576142a5613a26565b5b600084013567ffffffffffffffff8111156142c4576142c3613a2b565b5b6142d086828701613b48565b935050602084013567ffffffffffffffff8111156142f1576142f0613a2b565b5b6142fd86828701613b48565b925050604061430e86828701613b86565b9150509250925092565b600081519050919050565b600082825260208201905092915050565b6000819050602082019050919050565b61434d81613ff0565b82525050565b600060408301600083015184820360008601526143708282613d11565b91505060208301516143856020860182614344565b508091505092915050565b600061439c8383614353565b905092915050565b6000602082019050919050565b60006143bc82614318565b6143c68185614323565b9350836020820285016143d885614334565b8060005b8581101561441457848403895281516143f58582614390565b9450614400836143a4565b925060208a019950506001810190506143dc565b50829750879550505050505092915050565b600081519050919050565b600082825260208201905092915050565b6000819050602082019050919050565b6000604083016000830151848203600086015261446f8282613d11565b91505060208301516144846020860182614344565b508091505092915050565b600061449b8383614452565b905092915050565b6000602082019050919050565b60006144bb82614426565b6144c58185614431565b9350836020820285016144d785614442565b8060005b8581101561451357848403895281516144f4858261448f565b94506144ff836144a3565b925060208a019950506001810190506144db565b50829750879550505050505092915050565b600060808301600083015184820360008601526145428282613d11565b9150506020830151848203602086015261455c8282613d11565b9150506040830151848203604086015261457682826143b1565b9150506060830151848203606086015261459082826144b0565b9150508091505092915050565b600060208201905081810360008301526145b78184614525565b905092915050565b600081519050919050565b600082825260208201905092915050565b6000819050602082019050919050565b600060a08301600083015184820360008601526146088282613d11565b915050602083015184820360208601526146228282613d11565b9150506040830151848203604086015261463c8282613d11565b91505060608301516146516060860182613db2565b50608083015184820360808601526146698282613d11565b9150508091505092915050565b600061468283836145eb565b905092915050565b6000602082019050919050565b60006146a2826145bf565b6146ac81856145ca565b9350836020820285016146be856145db565b8060005b858110156146fa57848403895281516146db8582614676565b94506146e68361468a565b925060208a019950506001810190506146c2565b50829750879550505050505092915050565b600060208201905081810360008301526147268184614697565b905092915050565b600081905092915050565b600061474482613ccb565b61474e818561472e565b935061475e818560208601613ce7565b80840191505092915050565b60006147768284614739565b915081905092915050565b7f4e487b7100000000000000000000000000000000000000000000000000000000600052602260045260246000fd5b600060028204905060018216806147c857607f821691505b6020821081036147db576147da614781565b5b50919050565b7f4e6f7420746865206361736520696e76657374696761746f7200000000000000600082015250565b6000614817601983614053565b9150614822826147e1565b602082019050919050565b600060208201905081810360008301526148468161480a565b9050919050565b7f4e487b7100000000000000000000000000000000000000000000000000000000600052603260045260246000fd5b60008154905061488b816147b0565b9050919050565b60008190508160005260206000209050919050565b60008190508160005260206000209050919050565b60006020601f8301049050919050565b600082821b905092915050565b6000600883026149097fffffffffffffffffffffffffffffffffffffffffffffffffffffffffffffffff826148cc565b61491386836148cc565b95508019841693508086168417925050509392505050565b6000819050919050565b600061495061494b61494684613ff0565b61492b565b613ff0565b9050919050565b6000819050919050565b61496a83614935565b61497e61497682614957565b8484546148d9565b825550505050565b600090565b614993614986565b61499e818484614961565b505050565b5b818110156149c2576149b760008261498b565b6001810190506149a4565b5050565b601f821115614a07576149d881614892565b6149e1846148bc565b810160208510156149f0578190505b614a046149fc856148bc565b8301826149a3565b50505b505050565b600082821c905092915050565b6000614a2a60001984600802614a0c565b1980831691505092915050565b6000614a438383614a19565b9150826002028217905092915050565b818103614a61575050614b39565b614a6a8261487c565b67ffffffffffffffff811115614a8357614a82613a4b565b5b614a8d82546147b0565b614a988282856149c6565b6000601f831160018114614ac75760008415614ab5578287015490505b614abf8582614a37565b865550614b32565b601f198416614ad5876148a7565b9650614ae086614892565b60005b82811015614b0857848901548255600182019150600185019450602081019050614ae3565b86831015614b255784890154614b21601f891682614a19565b8355505b6001600288020188555050505b5050505050505b565b7f4e487b7100000000000000000000000000000000000000000000000000000000600052601160045260246000fd5b6000614b7582613ff0565b91507fffffffffffffffffffffffffffffffffffffffffffffffffffffffffffffffff8203614ba757614ba6614b3b565b5b600182019050919050565b60008154614bbf816147b0565b614bc9818661472e565b94506001821660008114614be45760018114614bf957614c2c565b60ff1983168652811515820286019350614c2c565b614c0285614892565b60005b83811015614c2457815481890152600182019150602081019050614c05565b838801955050505b50505092915050565b6000614c418284614bb2565b915081905092915050565b7f4361736520446f65736e6f742065786973740000000000000000000000000000600082015250565b6000614c82601283614053565b9150614c8d82614c4c565b602082019050919050565b60006020820190508181036000830152614cb181614c75565b9050919050565b7f4361736520616c72656164792061646465640000000000000000000000000000600082015250565b6000614cee601283614053565b9150614cf982614cb8565b602082019050919050565b60006020820190508181036000830152614d1d81614ce1565b9050919050565b614d2d82613ccb565b67ffffffffffffffff811115614d4657614d45613a4b565b5b614d5082546147b0565b614d5b8282856149c6565b600060209050601f831160018114614d8e5760008415614d7c578287015190505b614d868582614a37565b865550614dee565b601f198416614d9c86614892565b60005b82811015614dc457848901518255600182019150602085019450602081019050614d9f565b86831015614de15784890151614ddd601f891682614a19565b8355505b6001600288020188555050505b505050505050565b7f5573657220616c7265616479206170706c696564000000000000000000000000600082015250565b6000614e2c601483614053565b9150614e3782614df6565b602082019050919050565b60006020820190508181036000830152614e5b81614e1f565b9050919050565b7f416c7265616479206170706c6965640000000000000000000000000000000000600082015250565b6000614e98600f83614053565b9150614ea382614e62565b602082019050919050565b60006020820190508181036000830152614ec781614e8b565b9050919050565b7f43617365206973206e6f7420636f6d706c657465640000000000000000000000600082015250565b6000614f04601583614053565b9150614f0f82614ece565b602082019050919050565b60006020820190508181036000830152614f3381614ef7565b9050919050565b7f4361736520616c72656164792065786973740000000000000000000000000000600082015250565b6000614f70601283614053565b9150614f7b82614f3a565b602082019050919050565b60006020820190508181036000830152614f9f81614f63565b9050919050565b7f4167656e6379206e6f7420617574686f72697a65640000000000000000000000600082015250565b6000614fdc601583614053565b9150614fe782614fa6565b602082019050919050565b6000602082019050818103600083015261500b81614fcf565b9050919050565b7f4e6f7420746865206361736520686f6c646572206f7220696e7665737469676160008201527f746f720000000000000000000000000000000000000000000000000000000000602082015250565b600061506e602383614053565b915061507982615012565b604082019050919050565b6000602082019050818103600083015261509d81615061565b9050919050565b7f43616e6e6f74206164642073696e636520636f6d706c65746564000000000000600082015250565b60006150da601a83614053565b91506150e5826150a4565b602082019050919050565b60006020820190508181036000830152615109816150cd565b9050919050565b61511981613ff0565b82525050565b600060408201905081810360008301526151398185614064565b90506151486020830184615110565b9392505050565b60008154905061515e816147b0565b9050919050565b81810361517357505061524b565b61517c8261514f565b67ffffffffffffffff81111561519557615194613a4b565b5b61519f82546147b0565b6151aa8282856149c6565b6000601f8311600181146151d957600084156151c7578287015490505b6151d18582614a37565b865550615244565b601f1984166151e787614892565b96506151f286614892565b60005b8281101561521a578489015482556001820191506001850194506020810190506151f5565b868310156152375784890154615233601f891682614a19565b8355505b6001600288020188555050505b5050505050505b56fea2646970667358221220d25681d834689ccf047cb779e0f450abf35337d87c7df82ab0279bf798b326e364736f6c63430008110033",
  "linkReferences": {},
  "deployedLinkReferences": {}
}