{
  "_format": "hh-sol-artifact-1",
  "contractName": "Crimewatch",
  "sourceName": "contracts/Crimewatch.sol",
  "abi": [
    {
      "anonymous": false,
      "inputs": [
        {
          "indexed": true,
          "internalType": "string",
          "name": "caseId",
          "type": "string"
        },
        {
          "indexed": false,
          "internalType": "string",
          "name": "userId",
          "type": "string"
        },
        {
          "indexed": false,
          "internalType": "string",
          "name": "agencyId",
          "type": "string"
        }
      ],
      "name": "CaseEvent",
      "type": "event"
    },
    {
      "anonymous": false,
      "inputs": [
        {
          "indexed": true,
          "internalType": "string",
          "name": "caseId",
          "type": "string"
        },
        {
          "indexed": false,
          "internalType": "string",
          "name": "agencyId",
          "type": "string"
        },
        {
          "indexed": true,
          "internalType": "string",
          "name": "publishedUrl",
          "type": "string"
        }
      ],
      "name": "CompletedCaseEvent",
      "type": "event"
    },
    {
      "anonymous": false,
      "inputs": [
        {
          "indexed": true,
          "internalType": "string",
          "name": "cardId",
          "type": "string"
        },
        {
          "indexed": false,
          "internalType": "string",
          "name": "userId",
          "type": "string"
        },
        {
          "indexed": false,
          "internalType": "string",
          "name": "agencyId",
          "type": "string"
        }
      ],
      "name": "DigitalCardEvent",
      "type": "event"
    },
    {
      "anonymous": false,
      "inputs": [
        {
          "indexed": true,
          "internalType": "string",
          "name": "caseId",
          "type": "string"
        },
        {
          "indexed": false,
          "internalType": "string",
          "name": "handlerId",
          "type": "string"
        },
        {
          "indexed": false,
          "internalType": "uint256",
          "name": "timestamp",
          "type": "uint256"
        }
      ],
      "name": "EvidenceEvent",
      "type": "event"
    },
    {
      "anonymous": false,
      "inputs": [
        {
          "indexed": true,
          "internalType": "string",
          "name": "caseId",
          "type": "string"
        },
        {
          "indexed": false,
          "internalType": "string",
          "name": "requestedById",
          "type": "string"
        }
      ],
      "name": "RequestCaseEvent",
      "type": "event"
    },
    {
      "anonymous": false,
      "inputs": [
        {
          "indexed": true,
          "internalType": "string",
          "name": "caseId",
          "type": "string"
        },
        {
          "indexed": false,
          "internalType": "string",
          "name": "requestedById",
          "type": "string"
        }
      ],
      "name": "RequestCaseUpdateEvent",
      "type": "event"
    },
    {
      "inputs": [
        {
          "internalType": "string",
          "name": "caseId",
          "type": "string"
        },
        {
          "internalType": "string",
          "name": "publishedUrl",
          "type": "string"
        },
        {
          "internalType": "string",
          "name": "agencyId",
          "type": "string"
        }
      ],
      "name": "addCompletedCase",
      "outputs": [],
      "stateMutability": "nonpayable",
      "type": "function"
    },
    {
      "inputs": [
        {
          "internalType": "string",
          "name": "caseId",
          "type": "string"
        },
        {
          "internalType": "string",
          "name": "accountId",
          "type": "string"
        },
        {
          "internalType": "string",
          "name": "evidenceId",
          "type": "string"
        }
      ],
      "name": "addEvidence",
      "outputs": [],
      "stateMutability": "nonpayable",
      "type": "function"
    },
    {
      "inputs": [
        {
          "internalType": "string",
          "name": "cardId",
          "type": "string"
        },
        {
          "internalType": "string",
          "name": "agencyId",
          "type": "string"
        },
        {
          "internalType": "string",
          "name": "userId",
          "type": "string"
        }
      ],
      "name": "applyDigitalCard",
      "outputs": [],
      "stateMutability": "nonpayable",
      "type": "function"
    },
    {
      "inputs": [
        {
          "internalType": "uint256",
          "name": "",
          "type": "uint256"
        }
      ],
      "name": "caseIds",
      "outputs": [
        {
          "internalType": "string",
          "name": "",
          "type": "string"
        }
      ],
      "stateMutability": "view",
      "type": "function"
    },
    {
      "inputs": [
        {
          "internalType": "string",
          "name": "",
          "type": "string"
        }
      ],
      "name": "caseMapping",
      "outputs": [
        {
          "internalType": "string",
          "name": "userId",
          "type": "string"
        },
        {
          "internalType": "string",
          "name": "agencyId",
          "type": "string"
        }
      ],
      "stateMutability": "view",
      "type": "function"
    },
    {
      "inputs": [
        {
          "internalType": "uint256",
          "name": "",
          "type": "uint256"
        }
      ],
      "name": "completedCaseIds",
      "outputs": [
        {
          "internalType": "string",
          "name": "",
          "type": "string"
        }
      ],
      "stateMutability": "view",
      "type": "function"
    },
    {
      "inputs": [
        {
          "internalType": "string",
          "name": "",
          "type": "string"
        }
      ],
      "name": "completedCaseMapping",
      "outputs": [
        {
          "internalType": "string",
          "name": "publishedUrl",
          "type": "string"
        }
      ],
      "stateMutability": "view",
      "type": "function"
    },
    {
      "inputs": [
        {
          "internalType": "string",
          "name": "caseId",
          "type": "string"
        },
        {
          "internalType": "string",
          "name": "userId",
          "type": "string"
        },
        {
          "internalType": "string",
          "name": "agencyId",
          "type": "string"
        }
      ],
      "name": "createCase",
      "outputs": [],
      "stateMutability": "nonpayable",
      "type": "function"
    },
    {
      "inputs": [
        {
          "internalType": "uint256",
          "name": "",
          "type": "uint256"
        }
      ],
      "name": "digitalCardIds",
      "outputs": [
        {
          "internalType": "string",
          "name": "",
          "type": "string"
        }
      ],
      "stateMutability": "view",
      "type": "function"
    },
    {
      "inputs": [
        {
          "internalType": "string",
          "name": "",
          "type": "string"
        }
      ],
      "name": "digitalCardMapping",
      "outputs": [
        {
          "internalType": "string",
          "name": "userId",
          "type": "string"
        },
        {
          "internalType": "string",
          "name": "agencyId",
          "type": "string"
        },
        {
          "internalType": "enum Crimewatch.RequestStatus",
          "name": "status",
          "type": "uint8"
        }
      ],
      "stateMutability": "view",
      "type": "function"
    },
    {
      "inputs": [
        {
          "internalType": "string",
          "name": "caseId",
          "type": "string"
        }
      ],
      "name": "getCase",
      "outputs": [
        {
          "components": [
            {
              "internalType": "string",
              "name": "userId",
              "type": "string"
            },
            {
              "internalType": "string",
              "name": "agencyId",
              "type": "string"
            },
            {
              "components": [
                {
                  "internalType": "string",
                  "name": "evidenceId",
                  "type": "string"
                },
                {
                  "internalType": "string",
                  "name": "handlerId",
                  "type": "string"
                },
                {
                  "internalType": "uint256",
                  "name": "timestamp",
                  "type": "uint256"
                }
              ],
              "internalType": "struct Crimewatch.Evidence[]",
              "name": "evidences",
              "type": "tuple[]"
            }
          ],
          "internalType": "struct Crimewatch.Case",
          "name": "",
          "type": "tuple"
        }
      ],
      "stateMutability": "view",
      "type": "function"
    },
    {
      "inputs": [
        {
          "internalType": "string",
          "name": "cardId",
          "type": "string"
        }
      ],
      "name": "getDigitalCard",
      "outputs": [
        {
          "components": [
            {
              "internalType": "string",
              "name": "userId",
              "type": "string"
            },
            {
              "internalType": "string",
              "name": "agencyId",
              "type": "string"
            },
            {
              "internalType": "enum Crimewatch.RequestStatus",
              "name": "status",
              "type": "uint8"
            }
          ],
          "internalType": "struct Crimewatch.DigitalCard",
          "name": "",
          "type": "tuple"
        }
      ],
      "stateMutability": "view",
      "type": "function"
    },
    {
      "inputs": [
        {
          "internalType": "string",
          "name": "agencyId",
          "type": "string"
        }
      ],
      "name": "getDigitalCards",
      "outputs": [
        {
          "components": [
            {
              "internalType": "string",
              "name": "userId",
              "type": "string"
            },
            {
              "internalType": "string",
              "name": "agencyId",
              "type": "string"
            },
            {
              "internalType": "enum Crimewatch.RequestStatus",
              "name": "status",
              "type": "uint8"
            }
          ],
          "internalType": "struct Crimewatch.DigitalCard[]",
          "name": "",
          "type": "tuple[]"
        }
      ],
      "stateMutability": "view",
      "type": "function"
    },
    {
      "inputs": [
        {
          "internalType": "string",
          "name": "accountId",
          "type": "string"
        }
      ],
      "name": "getRequestedCases",
      "outputs": [
        {
          "components": [
            {
              "internalType": "string",
              "name": "requestId",
              "type": "string"
            },
            {
              "internalType": "string",
              "name": "requestedById",
              "type": "string"
            },
            {
              "internalType": "string",
              "name": "requestedToId",
              "type": "string"
            },
            {
              "internalType": "string",
              "name": "caseId",
              "type": "string"
            },
            {
              "internalType": "enum Crimewatch.RequestStatus",
              "name": "status",
              "type": "uint8"
            },
            {
              "internalType": "string",
              "name": "publishedUrl",
              "type": "string"
            }
          ],
          "internalType": "struct Crimewatch.RequestCase[]",
          "name": "",
          "type": "tuple[]"
        }
      ],
      "stateMutability": "view",
      "type": "function"
    },
    {
      "inputs": [
        {
          "internalType": "string",
          "name": "caseId",
          "type": "string"
        },
        {
          "internalType": "string",
          "name": "agencyId",
          "type": "string"
        },
        {
          "internalType": "string",
          "name": "requestId",
          "type": "string"
        }
      ],
      "name": "requestCase",
      "outputs": [],
      "stateMutability": "nonpayable",
      "type": "function"
    },
    {
      "inputs": [
        {
          "internalType": "uint256",
          "name": "",
          "type": "uint256"
        }
      ],
      "name": "requestCaseIds",
      "outputs": [
        {
          "internalType": "string",
          "name": "",
          "type": "string"
        }
      ],
      "stateMutability": "view",
      "type": "function"
    },
    {
      "inputs": [
        {
          "internalType": "string",
          "name": "",
          "type": "string"
        },
        {
          "internalType": "uint256",
          "name": "",
          "type": "uint256"
        }
      ],
      "name": "requestCaseMapping",
      "outputs": [
        {
          "internalType": "string",
          "name": "requestId",
          "type": "string"
        },
        {
          "internalType": "string",
          "name": "requestedById",
          "type": "string"
        },
        {
          "internalType": "string",
          "name": "requestedToId",
          "type": "string"
        },
        {
          "internalType": "string",
          "name": "caseId",
          "type": "string"
        },
        {
          "internalType": "enum Crimewatch.RequestStatus",
          "name": "status",
          "type": "uint8"
        },
        {
          "internalType": "string",
          "name": "publishedUrl",
          "type": "string"
        }
      ],
      "stateMutability": "view",
      "type": "function"
    },
    {
      "inputs": [
        {
          "internalType": "string",
          "name": "cardId",
          "type": "string"
        },
        {
          "internalType": "string",
          "name": "agencyId",
          "type": "string"
        },
        {
          "internalType": "enum Crimewatch.RequestStatus",
          "name": "status",
          "type": "uint8"
        }
      ],
      "name": "updateDigitalCard",
      "outputs": [],
      "stateMutability": "nonpayable",
      "type": "function"
    },
    {
      "inputs": [
        {
          "internalType": "string",
          "name": "caseId",
          "type": "string"
        },
        {
          "internalType": "string",
          "name": "requestedById",
          "type": "string"
        },
        {
          "internalType": "enum Crimewatch.RequestStatus",
          "name": "status",
          "type": "uint8"
        },
        {
          "internalType": "string",
          "name": "requestedToId",
          "type": "string"
        }
      ],
      "name": "updateRequestedCase",
      "outputs": [],
      "stateMutability": "nonpayable",
      "type": "function"
    }
  ],
  "bytecode": "0x608060405234801561001057600080fd5b50614cce806100206000396000f3fe608060405234801561001057600080fd5b50600436106101215760003560e01c80638259fc23116100ad5780639d5061f9116100715780639d5061f91461036a578063cd62edcc14610386578063d4e06826146103a2578063f33c9a44146103d2578063f95405041461040257610121565b80638259fc23146102725780638ad8ae97146102a25780638ed36ff7146102d757806394ed0c18146103075780639ab779211461033957610121565b80634ec523d2116100f45780634ec523d2146101be5780635fe2448c146101da57806361f0978f146101f6578063683ffc03146102265780636bbc463c1461024257610121565b806314cf72c8146101265780632a290854146101425780633cf16fda14610172578063439ed6481461018e575b600080fd5b610140600480360381019061013b919061372e565b610432565b005b61015c600480360381019061015791906137e9565b61077d565b6040516101699190613a41565b60405180910390f35b61018c60048036038101906101879190613a63565b610bb5565b005b6101a860048036038101906101a391906137e9565b610f75565b6040516101b59190613b61565b60405180910390f35b6101d860048036038101906101d39190613a63565b61110c565b005b6101f460048036038101906101ef9190613a63565b6113cd565b005b610210600480360381019061020b9190613bb9565b61180d565b60405161021d9190613c30565b60405180910390f35b610240600480360381019061023b9190613a63565b6118b9565b005b61025c60048036038101906102579190613bb9565b611b99565b6040516102699190613c30565b60405180910390f35b61028c600480360381019061028791906137e9565b611c45565b6040516102999190613c30565b60405180910390f35b6102bc60048036038101906102b79190613c52565b611d01565b6040516102ce96959493929190613cbd565b60405180910390f35b6102f160048036038101906102ec9190613bb9565b612025565b6040516102fe9190613c30565b60405180910390f35b610321600480360381019061031c91906137e9565b6120d1565b60405161033093929190613d41565b60405180910390f35b610353600480360381019061034e91906137e9565b61222e565b604051610361929190613d86565b60405180910390f35b610384600480360381019061037f9190613a63565b612378565b005b6103a0600480360381019061039b9190613dbd565b6124cf565b005b6103bc60048036038101906103b791906137e9565b6125f8565b6040516103c99190613fce565b60405180910390f35b6103ec60048036038101906103e791906137e9565b612953565b6040516103f99190614157565b60405180910390f35b61041c60048036038101906104179190613bb9565b6132d6565b6040516104299190613c30565b60405180910390f35b83816104e760048360405161044791906141b5565b90815260200160405180910390206001018054610463906141fb565b80601f016020809104026020016040519081016040528092919081815260200182805461048f906141fb565b80156104dc5780601f106104b1576101008083540402835291602001916104dc565b820191906000526020600020905b8154815290600101906020018083116104bf57829003601f168201915b505050505082613382565b610526576040517f08c379a000000000000000000000000000000000000000000000000000000000815260040161051d90614278565b60405180910390fd5b600060078760405161053891906141b5565b908152602001604051809103902080549050905060005b818110156107735761062a60078960405161056a91906141b5565b9081526020016040518091039020828154811061058a57610589614298565b5b906000526020600020906006020160010180546105a6906141fb565b80601f01602080910402602001604051908101604052809291908181526020018280546105d2906141fb565b801561061f5780601f106105f45761010080835404028352916020019161061f565b820191906000526020600020905b81548152906001019060200180831161060257829003601f168201915b505050505088613382565b1561076057600060078960405161064191906141b5565b9081526020016040518091039020828154811061066157610660614298565b5b90600052602060002090600602019050868160040160006101000a81548160ff02191690836002811115610698576106976138dd565b5b0217905550600060028111156106b1576106b06138dd565b5b8160040160009054906101000a900460ff1660028111156106d5576106d46138dd565b5b0361070d576006896040516106ea91906141b5565b908152602001604051809103902060000181600501908161070b919061449e565b505b8860405161071b91906141b5565b60405180910390207fd4d13122af12c193992ca3cfd4115fdf4489f360e7fbe55716ddcd2e8f0af112876040516107529190613c30565b60405180910390a250610773565b808061076b906145b5565b91505061054f565b5050505050505050565b60606000805b600380549050811015610887576108606005600383815481106107a9576107a8614298565b5b906000526020600020016040516107c09190614680565b908152602001604051809103902060010180546107dc906141fb565b80601f0160208091040260200160405190810160405280929190818152602001828054610808906141fb565b80156108555780601f1061082a57610100808354040283529160200191610855565b820191906000526020600020905b81548152906001019060200180831161083857829003601f168201915b505050505085613382565b15610874578180610870906145b5565b9250505b808061087f906145b5565b915050610783565b506000808267ffffffffffffffff8111156108a5576108a46135de565b5b6040519080825280602002602001820160405280156108de57816020015b6108cb6133eb565b8152602001906001900390816108c35790505b50905060005b600380549050811015610ba9576109c160056003838154811061090a57610909614298565b5b906000526020600020016040516109219190614680565b9081526020016040518091039020600101805461093d906141fb565b80601f0160208091040260200160405190810160405280929190818152602001828054610969906141fb565b80156109b65780601f1061098b576101008083540402835291602001916109b6565b820191906000526020600020905b81548152906001019060200180831161099957829003601f168201915b505050505087613382565b15610b96576005600382815481106109dc576109db614298565b5b906000526020600020016040516109f39190614680565b9081526020016040518091039020604051806060016040529081600082018054610a1c906141fb565b80601f0160208091040260200160405190810160405280929190818152602001828054610a48906141fb565b8015610a955780601f10610a6a57610100808354040283529160200191610a95565b820191906000526020600020905b815481529060010190602001808311610a7857829003601f168201915b50505050508152602001600182018054610aae906141fb565b80601f0160208091040260200160405190810160405280929190818152602001828054610ada906141fb565b8015610b275780601f10610afc57610100808354040283529160200191610b27565b820191906000526020600020905b815481529060010190602001808311610b0a57829003601f168201915b505050505081526020016002820160009054906101000a900460ff166002811115610b5557610b546138dd565b5b6002811115610b6757610b666138dd565b5b81525050828480610b77906145b5565b955081518110610b8a57610b89614298565b5b60200260200101819052505b8080610ba1906145b5565b9150506108e4565b50809350505050919050565b826000600482604051610bc891906141b5565b90815260200160405180910390206000018054610be4906141fb565b905011610c26576040517f08c379a0000000000000000000000000000000000000000000000000000000008152600401610c1d906146e3565b60405180910390fd5b610cd9600485604051610c3991906141b5565b90815260200160405180910390206001018054610c55906141fb565b80601f0160208091040260200160405190810160405280929190818152602001828054610c81906141fb565b8015610cce5780601f10610ca357610100808354040283529160200191610cce565b820191906000526020600020905b815481529060010190602001808311610cb157829003601f168201915b505050505084613382565b80610d935750610d92600485604051610cf291906141b5565b90815260200160405180910390206000018054610d0e906141fb565b80601f0160208091040260200160405190810160405280929190818152602001828054610d3a906141fb565b8015610d875780601f10610d5c57610100808354040283529160200191610d87565b820191906000526020600020905b815481529060010190602001808311610d6a57829003601f168201915b505050505084613382565b5b610dd2576040517f08c379a0000000000000000000000000000000000000000000000000000000008152600401610dc990614775565b60405180910390fd5b6000600685604051610de491906141b5565b90815260200160405180910390206000018054610e00906141fb565b905014610e42576040517f08c379a0000000000000000000000000000000000000000000000000000000008152600401610e39906147e1565b60405180910390fd5b600060405180606001604052808481526020018581526020014281525090506000600486604051610e7391906141b5565b90815260200160405180910390206002019050808290806001815401808255809150506001900390600052602060002090600302016000909190919091506000820151816000019081610ec69190614801565b506020820151816001019081610edc9190614801565b5060408201518160020155505080600487604051610efa91906141b5565b9081526020016040518091039020600201908054610f1992919061341e565b5085604051610f2891906141b5565b60405180910390207fb7b935325e0be01f3d5c050422dac655816f6cc853f68d564978d8e80b042021868460400151604051610f659291906148e2565b60405180910390a2505050505050565b610f7d6133eb565b600582604051610f8d91906141b5565b9081526020016040518091039020604051806060016040529081600082018054610fb6906141fb565b80601f0160208091040260200160405190810160405280929190818152602001828054610fe2906141fb565b801561102f5780601f106110045761010080835404028352916020019161102f565b820191906000526020600020905b81548152906001019060200180831161101257829003601f168201915b50505050508152602001600182018054611048906141fb565b80601f0160208091040260200160405190810160405280929190818152602001828054611074906141fb565b80156110c15780601f10611096576101008083540402835291602001916110c1565b820191906000526020600020905b8154815290600101906020018083116110a457829003601f168201915b505050505081526020016002820160009054906101000a900460ff1660028111156110ef576110ee6138dd565b5b6002811115611101576111006138dd565b5b815250509050919050565b82600060048260405161111f91906141b5565b9081526020016040518091039020600001805461113b906141fb565b90501161117d576040517f08c379a0000000000000000000000000000000000000000000000000000000008152600401611174906146e3565b60405180910390fd5b838261123260048360405161119291906141b5565b908152602001604051809103902060010180546111ae906141fb565b80601f01602080910402602001604051908101604052809291908181526020018280546111da906141fb565b80156112275780601f106111fc57610100808354040283529160200191611227565b820191906000526020600020905b81548152906001019060200180831161120a57829003601f168201915b505050505082613382565b611271576040517f08c379a000000000000000000000000000000000000000000000000000000000815260040161126890614278565b60405180910390fd5b600060068760405161128391906141b5565b9081526020016040518091039020600001805461129f906141fb565b9050146112e1576040517f08c379a00000000000000000000000000000000000000000000000000000000081526004016112d89061495e565b60405180910390fd5b600060405180602001604052808781525090508060068860405161130591906141b5565b908152602001604051809103902060008201518160000190816113289190614801565b509050506001879080600181540180825580915050600190039060005260206000200160009091909190915090816113609190614801565b508560405161136f91906141b5565b60405180910390208760405161138591906141b5565b60405180910390207f2356f98ce86fbdc4bec46fea50e71c064c1f8977d01145f26dd046464eeaa10c876040516113bc9190613c30565b60405180910390a350505050505050565b8260006004826040516113e091906141b5565b908152602001604051809103902060000180546113fc906141fb565b90501161143e576040517f08c379a0000000000000000000000000000000000000000000000000000000008152600401611435906146e3565b60405180910390fd5b83600060068260405161145191906141b5565b9081526020016040518091039020600001805461146d906141fb565b9050116114af576040517f08c379a00000000000000000000000000000000000000000000000000000000081526004016114a6906149ca565b60405180910390fd5b60006004866040516114c191906141b5565b908152602001604051809103902060010180546114dd906141fb565b80601f0160208091040260200160405190810160405280929190818152602001828054611509906141fb565b80156115565780601f1061152b57610100808354040283529160200191611556565b820191906000526020600020905b81548152906001019060200180831161153957829003601f168201915b5050505050905060006040518060c0016040528086815260200187815260200183815260200188815260200160016002811115611596576115956138dd565b5b81526020016040518060200160405280600081525081525090506007876040516115c091906141b5565b9081526020016040518091039020819080600181540180825580915050600190039060005260206000209060060201600090919091909150600082015181600001908161160d9190614801565b5060208201518160010190816116239190614801565b5060408201518160020190816116399190614801565b50606082015181600301908161164f9190614801565b5060808201518160040160006101000a81548160ff0219169083600281111561167b5761167a6138dd565b5b021790555060a08201518160050190816116959190614801565b5050506000805b60008054905081101561177a57611759600082815481106116c0576116bf614298565b5b9060005260206000200180546116d5906141fb565b80601f0160208091040260200160405190810160405280929190818152602001828054611701906141fb565b801561174e5780601f106117235761010080835404028352916020019161174e565b820191906000526020600020905b81548152906001019060200180831161173157829003601f168201915b50505050508a613382565b15611767576001915061177a565b8080611772906145b5565b91505061169c565b50806117b6576000889080600181540180825580915050600190039060005260206000200160009091909190915090816117b49190614801565b505b876040516117c491906141b5565b60405180910390207fd4d13122af12c193992ca3cfd4115fdf4489f360e7fbe55716ddcd2e8f0af112886040516117fb9190613c30565b60405180910390a25050505050505050565b6001818154811061181d57600080fd5b906000526020600020016000915090508054611838906141fb565b80601f0160208091040260200160405190810160405280929190818152602001828054611864906141fb565b80156118b15780601f10611886576101008083540402835291602001916118b1565b820191906000526020600020905b81548152906001019060200180831161189457829003601f168201915b505050505081565b8060005b6003805490508110156119ed5761199a6005600383815481106118e3576118e2614298565b5b906000526020600020016040516118fa9190614680565b90815260200160405180910390206000018054611916906141fb565b80601f0160208091040260200160405190810160405280929190818152602001828054611942906141fb565b801561198f5780601f106119645761010080835404028352916020019161198f565b820191906000526020600020905b81548152906001019060200180831161197257829003601f168201915b505050505083613382565b156119da576040517f08c379a00000000000000000000000000000000000000000000000000000000081526004016119d190614a36565b60405180910390fd5b80806119e5906145b5565b9150506118bd565b506000600585604051611a0091906141b5565b90815260200160405180910390206000018054611a1c906141fb565b905014611a5e576040517f08c379a0000000000000000000000000000000000000000000000000000000008152600401611a5590614aa2565b60405180910390fd5b6000604051806060016040528084815260200185815260200160016002811115611a8b57611a8a6138dd565b5b815250905080600586604051611aa191906141b5565b90815260200160405180910390206000820151816000019081611ac49190614801565b506020820151816001019081611ada9190614801565b5060408201518160020160006101000a81548160ff02191690836002811115611b0657611b056138dd565b5b0217905550905050600385908060018154018082558091505060019003906000526020600020016000909190919091509081611b429190614801565b5084604051611b5191906141b5565b60405180910390207fd25afa0a554100161a217d989a131598431c4553a9ba16a2f4c4c6ef78b107b18486604051611b8a929190613d86565b60405180910390a25050505050565b60028181548110611ba957600080fd5b906000526020600020016000915090508054611bc4906141fb565b80601f0160208091040260200160405190810160405280929190818152602001828054611bf0906141fb565b8015611c3d5780601f10611c1257610100808354040283529160200191611c3d565b820191906000526020600020905b815481529060010190602001808311611c2057829003601f168201915b505050505081565b600681805160208101820180518482526020830160208501208183528095505050505050600091509050806000018054611c7e906141fb565b80601f0160208091040260200160405190810160405280929190818152602001828054611caa906141fb565b8015611cf75780601f10611ccc57610100808354040283529160200191611cf7565b820191906000526020600020905b815481529060010190602001808311611cda57829003601f168201915b5050505050905081565b6007828051602081018201805184825260208301602085012081835280955050505050508181548110611d3357600080fd5b906000526020600020906006020160009150915050806000018054611d57906141fb565b80601f0160208091040260200160405190810160405280929190818152602001828054611d83906141fb565b8015611dd05780601f10611da557610100808354040283529160200191611dd0565b820191906000526020600020905b815481529060010190602001808311611db357829003601f168201915b505050505090806001018054611de5906141fb565b80601f0160208091040260200160405190810160405280929190818152602001828054611e11906141fb565b8015611e5e5780601f10611e3357610100808354040283529160200191611e5e565b820191906000526020600020905b815481529060010190602001808311611e4157829003601f168201915b505050505090806002018054611e73906141fb565b80601f0160208091040260200160405190810160405280929190818152602001828054611e9f906141fb565b8015611eec5780601f10611ec157610100808354040283529160200191611eec565b820191906000526020600020905b815481529060010190602001808311611ecf57829003601f168201915b505050505090806003018054611f01906141fb565b80601f0160208091040260200160405190810160405280929190818152602001828054611f2d906141fb565b8015611f7a5780601f10611f4f57610100808354040283529160200191611f7a565b820191906000526020600020905b815481529060010190602001808311611f5d57829003601f168201915b5050505050908060040160009054906101000a900460ff1690806005018054611fa2906141fb565b80601f0160208091040260200160405190810160405280929190818152602001828054611fce906141fb565b801561201b5780601f10611ff05761010080835404028352916020019161201b565b820191906000526020600020905b815481529060010190602001808311611ffe57829003601f168201915b5050505050905086565b6003818154811061203557600080fd5b906000526020600020016000915090508054612050906141fb565b80601f016020809104026020016040519081016040528092919081815260200182805461207c906141fb565b80156120c95780601f1061209e576101008083540402835291602001916120c9565b820191906000526020600020905b8154815290600101906020018083116120ac57829003601f168201915b505050505081565b60058180516020810182018051848252602083016020850120818352809550505050505060009150905080600001805461210a906141fb565b80601f0160208091040260200160405190810160405280929190818152602001828054612136906141fb565b80156121835780601f1061215857610100808354040283529160200191612183565b820191906000526020600020905b81548152906001019060200180831161216657829003601f168201915b505050505090806001018054612198906141fb565b80601f01602080910402602001604051908101604052809291908181526020018280546121c4906141fb565b80156122115780601f106121e657610100808354040283529160200191612211565b820191906000526020600020905b8154815290600101906020018083116121f457829003601f168201915b5050505050908060020160009054906101000a900460ff16905083565b600481805160208101820180518482526020830160208501208183528095505050505050600091509050806000018054612267906141fb565b80601f0160208091040260200160405190810160405280929190818152602001828054612293906141fb565b80156122e05780601f106122b5576101008083540402835291602001916122e0565b820191906000526020600020905b8154815290600101906020018083116122c357829003601f168201915b5050505050908060010180546122f5906141fb565b80601f0160208091040260200160405190810160405280929190818152602001828054612321906141fb565b801561236e5780601f106123435761010080835404028352916020019161236e565b820191906000526020600020905b81548152906001019060200180831161235157829003601f168201915b5050505050905082565b600060048460405161238a91906141b5565b908152602001604051809103902060000180546123a6906141fb565b9050146123e8576040517f08c379a00000000000000000000000000000000000000000000000000000000081526004016123df90614b0e565b60405180910390fd5b816004846040516123f991906141b5565b908152602001604051809103902060000190816124169190614801565b508060048460405161242891906141b5565b908152602001604051809103902060010190816124459190614801565b5060028390806001815401808255809150506001900390600052602060002001600090919091909150908161247a9190614801565b508260405161248991906141b5565b60405180910390207fe546654ab105125b47005a24d6b52d1401c295a1ad5f09b31566a5b3110d152b83836040516124c2929190613d86565b60405180910390a2505050565b60006005846040516124e191906141b5565b90815260200160405180910390209050612587816001018054612503906141fb565b80601f016020809104026020016040519081016040528092919081815260200182805461252f906141fb565b801561257c5780601f106125515761010080835404028352916020019161257c565b820191906000526020600020905b81548152906001019060200180831161255f57829003601f168201915b505050505084613382565b6125c6576040517f08c379a00000000000000000000000000000000000000000000000000000000081526004016125bd90614b7a565b60405180910390fd5b818160020160006101000a81548160ff021916908360028111156125ed576125ec6138dd565b5b021790555050505050565b6126006134aa565b81600060048260405161261391906141b5565b9081526020016040518091039020600001805461262f906141fb565b905011612671576040517f08c379a0000000000000000000000000000000000000000000000000000000008152600401612668906146e3565b60405180910390fd5b60048360405161268191906141b5565b90815260200160405180910390206040518060600160405290816000820180546126aa906141fb565b80601f01602080910402602001604051908101604052809291908181526020018280546126d6906141fb565b80156127235780601f106126f857610100808354040283529160200191612723565b820191906000526020600020905b81548152906001019060200180831161270657829003601f168201915b5050505050815260200160018201805461273c906141fb565b80601f0160208091040260200160405190810160405280929190818152602001828054612768906141fb565b80156127b55780601f1061278a576101008083540402835291602001916127b5565b820191906000526020600020905b81548152906001019060200180831161279857829003601f168201915b5050505050815260200160028201805480602002602001604051908101604052809291908181526020016000905b828210156129435783829060005260206000209060030201604051806060016040529081600082018054612816906141fb565b80601f0160208091040260200160405190810160405280929190818152602001828054612842906141fb565b801561288f5780601f106128645761010080835404028352916020019161288f565b820191906000526020600020905b81548152906001019060200180831161287257829003601f168201915b505050505081526020016001820180546128a8906141fb565b80601f01602080910402602001604051908101604052809291908181526020018280546128d4906141fb565b80156129215780601f106128f657610100808354040283529160200191612921565b820191906000526020600020905b81548152906001019060200180831161290457829003601f168201915b50505050508152602001600282015481525050815260200190600101906127e3565b5050505081525050915050919050565b60606000805b600080549050811015612c2557600080828154811061297b5761297a614298565b5b906000526020600020018054612990906141fb565b80601f01602080910402602001604051908101604052809291908181526020018280546129bc906141fb565b8015612a095780601f106129de57610100808354040283529160200191612a09565b820191906000526020600020905b8154815290600101906020018083116129ec57829003601f168201915b5050505050905060005b600782604051612a2391906141b5565b908152602001604051809103902080549050811015612c1057612b0f600783604051612a4f91906141b5565b90815260200160405180910390208281548110612a6f57612a6e614298565b5b90600052602060002090600602016001018054612a8b906141fb565b80601f0160208091040260200160405190810160405280929190818152602001828054612ab7906141fb565b8015612b045780601f10612ad957610100808354040283529160200191612b04565b820191906000526020600020905b815481529060010190602001808311612ae757829003601f168201915b505050505087613382565b80612be95750612be8600783604051612b2891906141b5565b90815260200160405180910390208281548110612b4857612b47614298565b5b90600052602060002090600602016002018054612b64906141fb565b80601f0160208091040260200160405190810160405280929190818152602001828054612b90906141fb565b8015612bdd5780601f10612bb257610100808354040283529160200191612bdd565b820191906000526020600020905b815481529060010190602001808311612bc057829003601f168201915b505050505087613382565b5b15612bfd578380612bf9906145b5565b9450505b8080612c08906145b5565b915050612a13565b50508080612c1d906145b5565b915050612959565b5060008167ffffffffffffffff811115612c4257612c416135de565b5b604051908082528060200260200182016040528015612c7b57816020015b612c686134cb565b815260200190600190039081612c605790505b5090506000805b6000805490508110156132ca576000808281548110612ca457612ca3614298565b5b906000526020600020018054612cb9906141fb565b80601f0160208091040260200160405190810160405280929190818152602001828054612ce5906141fb565b8015612d325780601f10612d0757610100808354040283529160200191612d32565b820191906000526020600020905b815481529060010190602001808311612d1557829003601f168201915b5050505050905060005b600782604051612d4c91906141b5565b9081526020016040518091039020805490508110156132b557612e38600783604051612d7891906141b5565b90815260200160405180910390208281548110612d9857612d97614298565b5b90600052602060002090600602016001018054612db4906141fb565b80601f0160208091040260200160405190810160405280929190818152602001828054612de0906141fb565b8015612e2d5780601f10612e0257610100808354040283529160200191612e2d565b820191906000526020600020905b815481529060010190602001808311612e1057829003601f168201915b505050505089613382565b80612f125750612f11600783604051612e5191906141b5565b90815260200160405180910390208281548110612e7157612e70614298565b5b90600052602060002090600602016002018054612e8d906141fb565b80601f0160208091040260200160405190810160405280929190818152602001828054612eb9906141fb565b8015612f065780601f10612edb57610100808354040283529160200191612f06565b820191906000526020600020905b815481529060010190602001808311612ee957829003601f168201915b505050505089613382565b5b156132a257600782604051612f2791906141b5565b90815260200160405180910390208181548110612f4757612f46614298565b5b90600052602060002090600602016040518060c0016040529081600082018054612f70906141fb565b80601f0160208091040260200160405190810160405280929190818152602001828054612f9c906141fb565b8015612fe95780601f10612fbe57610100808354040283529160200191612fe9565b820191906000526020600020905b815481529060010190602001808311612fcc57829003601f168201915b50505050508152602001600182018054613002906141fb565b80601f016020809104026020016040519081016040528092919081815260200182805461302e906141fb565b801561307b5780601f106130505761010080835404028352916020019161307b565b820191906000526020600020905b81548152906001019060200180831161305e57829003601f168201915b50505050508152602001600282018054613094906141fb565b80601f01602080910402602001604051908101604052809291908181526020018280546130c0906141fb565b801561310d5780601f106130e25761010080835404028352916020019161310d565b820191906000526020600020905b8154815290600101906020018083116130f057829003601f168201915b50505050508152602001600382018054613126906141fb565b80601f0160208091040260200160405190810160405280929190818152602001828054613152906141fb565b801561319f5780601f106131745761010080835404028352916020019161319f565b820191906000526020600020905b81548152906001019060200180831161318257829003601f168201915b505050505081526020016004820160009054906101000a900460ff1660028111156131cd576131cc6138dd565b5b60028111156131df576131de6138dd565b5b81526020016005820180546131f3906141fb565b80601f016020809104026020016040519081016040528092919081815260200182805461321f906141fb565b801561326c5780601f106132415761010080835404028352916020019161326c565b820191906000526020600020905b81548152906001019060200180831161324f57829003601f168201915b50505050508152505085858151811061328857613287614298565b5b6020026020010181905250838061329e906145b5565b9450505b80806132ad906145b5565b915050612d3c565b505080806132c2906145b5565b915050612c82565b50819350505050919050565b600081815481106132e657600080fd5b906000526020600020016000915090508054613301906141fb565b80601f016020809104026020016040519081016040528092919081815260200182805461332d906141fb565b801561337a5780601f1061334f5761010080835404028352916020019161337a565b820191906000526020600020905b81548152906001019060200180831161335d57829003601f168201915b505050505081565b60008160405160200161339591906141b5565b60405160208183030381529060405280519060200120836040516020016133bc91906141b5565b60405160208183030381529060405280519060200120036133e057600190506133e5565b600090505b92915050565b6040518060600160405280606081526020016060815260200160006002811115613418576134176138dd565b5b81525090565b8280548282559060005260206000209060030281019282156134995760005260206000209160030282015b82811115613498578282600082018160000190816134679190614bb0565b506001820181600101908161347c9190614bb0565b5060028201548160020155505091600301919060030190613449565b5b5090506134a69190613513565b5090565b60405180606001604052806060815260200160608152602001606081525090565b6040518060c001604052806060815260200160608152602001606081526020016060815260200160006002811115613506576135056138dd565b5b8152602001606081525090565b5b8082111561354e576000808201600061352d9190613552565b60018201600061353d9190613552565b600282016000905550600301613514565b5090565b50805461355e906141fb565b6000825580601f10613570575061358f565b601f01602090049060005260206000209081019061358e9190613592565b5b50565b5b808211156135ab576000816000905550600101613593565b5090565b6000604051905090565b600080fd5b600080fd5b600080fd5b600080fd5b6000601f19601f8301169050919050565b7f4e487b7100000000000000000000000000000000000000000000000000000000600052604160045260246000fd5b613616826135cd565b810181811067ffffffffffffffff82111715613635576136346135de565b5b80604052505050565b60006136486135af565b9050613654828261360d565b919050565b600067ffffffffffffffff821115613674576136736135de565b5b61367d826135cd565b9050602081019050919050565b82818337600083830152505050565b60006136ac6136a784613659565b61363e565b9050828152602081018484840111156136c8576136c76135c8565b5b6136d384828561368a565b509392505050565b600082601f8301126136f0576136ef6135c3565b5b8135613700848260208601613699565b91505092915050565b6003811061371657600080fd5b50565b60008135905061372881613709565b92915050565b60008060008060808587031215613748576137476135b9565b5b600085013567ffffffffffffffff811115613766576137656135be565b5b613772878288016136db565b945050602085013567ffffffffffffffff811115613793576137926135be565b5b61379f878288016136db565b93505060406137b087828801613719565b925050606085013567ffffffffffffffff8111156137d1576137d06135be565b5b6137dd878288016136db565b91505092959194509250565b6000602082840312156137ff576137fe6135b9565b5b600082013567ffffffffffffffff81111561381d5761381c6135be565b5b613829848285016136db565b91505092915050565b600081519050919050565b600082825260208201905092915050565b6000819050602082019050919050565b600081519050919050565b600082825260208201905092915050565b60005b8381101561389857808201518184015260208101905061387d565b60008484015250505050565b60006138af8261385e565b6138b98185613869565b93506138c981856020860161387a565b6138d2816135cd565b840191505092915050565b7f4e487b7100000000000000000000000000000000000000000000000000000000600052602160045260246000fd5b6003811061391d5761391c6138dd565b5b50565b600081905061392e8261390c565b919050565b600061393e82613920565b9050919050565b61394e81613933565b82525050565b6000606083016000830151848203600086015261397182826138a4565b9150506020830151848203602086015261398b82826138a4565b91505060408301516139a06040860182613945565b508091505092915050565b60006139b78383613954565b905092915050565b6000602082019050919050565b60006139d782613832565b6139e1818561383d565b9350836020820285016139f38561384e565b8060005b85811015613a2f5784840389528151613a1085826139ab565b9450613a1b836139bf565b925060208a019950506001810190506139f7565b50829750879550505050505092915050565b60006020820190508181036000830152613a5b81846139cc565b905092915050565b600080600060608486031215613a7c57613a7b6135b9565b5b600084013567ffffffffffffffff811115613a9a57613a996135be565b5b613aa6868287016136db565b935050602084013567ffffffffffffffff811115613ac757613ac66135be565b5b613ad3868287016136db565b925050604084013567ffffffffffffffff811115613af457613af36135be565b5b613b00868287016136db565b9150509250925092565b60006060830160008301518482036000860152613b2782826138a4565b91505060208301518482036020860152613b4182826138a4565b9150506040830151613b566040860182613945565b508091505092915050565b60006020820190508181036000830152613b7b8184613b0a565b905092915050565b6000819050919050565b613b9681613b83565b8114613ba157600080fd5b50565b600081359050613bb381613b8d565b92915050565b600060208284031215613bcf57613bce6135b9565b5b6000613bdd84828501613ba4565b91505092915050565b600082825260208201905092915050565b6000613c028261385e565b613c0c8185613be6565b9350613c1c81856020860161387a565b613c25816135cd565b840191505092915050565b60006020820190508181036000830152613c4a8184613bf7565b905092915050565b60008060408385031215613c6957613c686135b9565b5b600083013567ffffffffffffffff811115613c8757613c866135be565b5b613c93858286016136db565b9250506020613ca485828601613ba4565b9150509250929050565b613cb781613933565b82525050565b600060c0820190508181036000830152613cd78189613bf7565b90508181036020830152613ceb8188613bf7565b90508181036040830152613cff8187613bf7565b90508181036060830152613d138186613bf7565b9050613d226080830185613cae565b81810360a0830152613d348184613bf7565b9050979650505050505050565b60006060820190508181036000830152613d5b8186613bf7565b90508181036020830152613d6f8185613bf7565b9050613d7e6040830184613cae565b949350505050565b60006040820190508181036000830152613da08185613bf7565b90508181036020830152613db48184613bf7565b90509392505050565b600080600060608486031215613dd657613dd56135b9565b5b600084013567ffffffffffffffff811115613df457613df36135be565b5b613e00868287016136db565b935050602084013567ffffffffffffffff811115613e2157613e206135be565b5b613e2d868287016136db565b9250506040613e3e86828701613719565b9150509250925092565b600081519050919050565b600082825260208201905092915050565b6000819050602082019050919050565b613e7d81613b83565b82525050565b60006060830160008301518482036000860152613ea082826138a4565b91505060208301518482036020860152613eba82826138a4565b9150506040830151613ecf6040860182613e74565b508091505092915050565b6000613ee68383613e83565b905092915050565b6000602082019050919050565b6000613f0682613e48565b613f108185613e53565b935083602082028501613f2285613e64565b8060005b85811015613f5e5784840389528151613f3f8582613eda565b9450613f4a83613eee565b925060208a01995050600181019050613f26565b50829750879550505050505092915050565b60006060830160008301518482036000860152613f8d82826138a4565b91505060208301518482036020860152613fa782826138a4565b91505060408301518482036040860152613fc18282613efb565b9150508091505092915050565b60006020820190508181036000830152613fe88184613f70565b905092915050565b600081519050919050565b600082825260208201905092915050565b6000819050602082019050919050565b600060c083016000830151848203600086015261403982826138a4565b9150506020830151848203602086015261405382826138a4565b9150506040830151848203604086015261406d82826138a4565b9150506060830151848203606086015261408782826138a4565b915050608083015161409c6080860182613945565b5060a083015184820360a08601526140b482826138a4565b9150508091505092915050565b60006140cd838361401c565b905092915050565b6000602082019050919050565b60006140ed82613ff0565b6140f78185613ffb565b9350836020820285016141098561400c565b8060005b85811015614145578484038952815161412685826140c1565b9450614131836140d5565b925060208a0199505060018101905061410d565b50829750879550505050505092915050565b6000602082019050818103600083015261417181846140e2565b905092915050565b600081905092915050565b600061418f8261385e565b6141998185614179565b93506141a981856020860161387a565b80840191505092915050565b60006141c18284614184565b915081905092915050565b7f4e487b7100000000000000000000000000000000000000000000000000000000600052602260045260246000fd5b6000600282049050600182168061421357607f821691505b602082108103614226576142256141cc565b5b50919050565b7f4e6f7420746865206361736520696e76657374696761746f7200000000000000600082015250565b6000614262601983613be6565b915061426d8261422c565b602082019050919050565b6000602082019050818103600083015261429181614255565b9050919050565b7f4e487b7100000000000000000000000000000000000000000000000000000000600052603260045260246000fd5b6000815490506142d6816141fb565b9050919050565b60008190508160005260206000209050919050565b60008190508160005260206000209050919050565b60006020601f8301049050919050565b600082821b905092915050565b6000600883026143547fffffffffffffffffffffffffffffffffffffffffffffffffffffffffffffffff82614317565b61435e8683614317565b95508019841693508086168417925050509392505050565b6000819050919050565b600061439b61439661439184613b83565b614376565b613b83565b9050919050565b6000819050919050565b6143b583614380565b6143c96143c1826143a2565b848454614324565b825550505050565b600090565b6143de6143d1565b6143e98184846143ac565b505050565b5b8181101561440d576144026000826143d6565b6001810190506143ef565b5050565b601f82111561445257614423816142dd565b61442c84614307565b8101602085101561443b578190505b61444f61444785614307565b8301826143ee565b50505b505050565b600082821c905092915050565b600061447560001984600802614457565b1980831691505092915050565b600061448e8383614464565b9150826002028217905092915050565b8181036144ac575050614584565b6144b5826142c7565b67ffffffffffffffff8111156144ce576144cd6135de565b5b6144d882546141fb565b6144e3828285614411565b6000601f8311600181146145125760008415614500578287015490505b61450a8582614482565b86555061457d565b601f198416614520876142f2565b965061452b866142dd565b60005b828110156145535784890154825560018201915060018501945060208101905061452e565b86831015614570578489015461456c601f891682614464565b8355505b6001600288020188555050505b5050505050505b565b7f4e487b7100000000000000000000000000000000000000000000000000000000600052601160045260246000fd5b60006145c082613b83565b91507fffffffffffffffffffffffffffffffffffffffffffffffffffffffffffffffff82036145f2576145f1614586565b5b600182019050919050565b6000815461460a816141fb565b6146148186614179565b9450600182166000811461462f576001811461464457614677565b60ff1983168652811515820286019350614677565b61464d856142dd565b60005b8381101561466f57815481890152600182019150602081019050614650565b838801955050505b50505092915050565b600061468c82846145fd565b915081905092915050565b7f4361736520446f65736e6f742065786973740000000000000000000000000000600082015250565b60006146cd601283613be6565b91506146d882614697565b602082019050919050565b600060208201905081810360008301526146fc816146c0565b9050919050565b7f4e6f7420746865206361736520686f6c646572206f7220696e7665737469676160008201527f746f720000000000000000000000000000000000000000000000000000000000602082015250565b600061475f602383613be6565b915061476a82614703565b604082019050919050565b6000602082019050818103600083015261478e81614752565b9050919050565b7f43616e6e6f74206164642073696e636520636f6d706c65746564000000000000600082015250565b60006147cb601a83613be6565b91506147d682614795565b602082019050919050565b600060208201905081810360008301526147fa816147be565b9050919050565b61480a8261385e565b67ffffffffffffffff811115614823576148226135de565b5b61482d82546141fb565b614838828285614411565b600060209050601f83116001811461486b5760008415614859578287015190505b6148638582614482565b8655506148cb565b601f198416614879866142dd565b60005b828110156148a15784890151825560018201915060208501945060208101905061487c565b868310156148be57848901516148ba601f891682614464565b8355505b6001600288020188555050505b505050505050565b6148dc81613b83565b82525050565b600060408201905081810360008301526148fc8185613bf7565b905061490b60208301846148d3565b9392505050565b7f4361736520616c72656164792061646465640000000000000000000000000000600082015250565b6000614948601283613be6565b915061495382614912565b602082019050919050565b600060208201905081810360008301526149778161493b565b9050919050565b7f43617365206973206e6f7420636f6d706c657465640000000000000000000000600082015250565b60006149b4601583613be6565b91506149bf8261497e565b602082019050919050565b600060208201905081810360008301526149e3816149a7565b9050919050565b7f5573657220616c7265616479206170706c696564000000000000000000000000600082015250565b6000614a20601483613be6565b9150614a2b826149ea565b602082019050919050565b60006020820190508181036000830152614a4f81614a13565b9050919050565b7f416c7265616479206170706c6965640000000000000000000000000000000000600082015250565b6000614a8c600f83613be6565b9150614a9782614a56565b602082019050919050565b60006020820190508181036000830152614abb81614a7f565b9050919050565b7f4361736520616c72656164792065786973740000000000000000000000000000600082015250565b6000614af8601283613be6565b9150614b0382614ac2565b602082019050919050565b60006020820190508181036000830152614b2781614aeb565b9050919050565b7f4167656e6379206e6f7420617574686f72697a65640000000000000000000000600082015250565b6000614b64601583613be6565b9150614b6f82614b2e565b602082019050919050565b60006020820190508181036000830152614b9381614b57565b9050919050565b600081549050614ba9816141fb565b9050919050565b818103614bbe575050614c96565b614bc782614b9a565b67ffffffffffffffff811115614be057614bdf6135de565b5b614bea82546141fb565b614bf5828285614411565b6000601f831160018114614c245760008415614c12578287015490505b614c1c8582614482565b865550614c8f565b601f198416614c32876142dd565b9650614c3d866142dd565b60005b82811015614c6557848901548255600182019150600185019450602081019050614c40565b86831015614c825784890154614c7e601f891682614464565b8355505b6001600288020188555050505b5050505050505b56fea26469706673582212206c754d772c1e18ff4b41ea3483a97502186eff70f544510948d22dd2c79c0d1e64736f6c63430008110033",
  "linkReferences": {},
  "deployedLinkReferences": {}
}